:020000040800F2
:1000000000800120FD3F0008693F00086B3F0008A9
:100010006D3F00086F3F0008713F000800000000BE
:100020000000000000000000000000004126000861
:10003000733F000800000000D126000835270008A3
:100040004D4000084D4000084D4000084D4000085C
:100050004D4000084D4000084D400008753F000825
:100060004D4000084D4000084D4000084D4000083C
:100070004D4000084D4000084D4000084D4000082C
:100080004D4000084D4000084D40000800000000B1
:100090000000000000000000000000004D400008CB
:1000A0004D4000084D4000084D4000084D400008FC
:1000B0004D4000084D4000087D3F00084D400008BD
:1000C0004D4000084D4000084D4000084D400008DC
:1000D0004D4000084D4000084D4000080000000061
:1000E000893F00084D4000084D4000080000000016
:1000F0000000000000000000000000004D4000086B
:10010000000000004D4000084D4000084D40000830
:1001100000000000000000000000000000000000DF
:100120004D4000084D4000084D4000084D4000087B
:100130004D4000080000000000000000000000002A
:100140000000000000000000000000004D4000081A
:100150004D4000084D4000084D4000084D4000084B
:100160004D4000084D400008000000000000000065
:10017000000000000000000000000000000000007F
:10018000000000004D4000080000000000000000DA
:040190004D400008D6
:1001A00010B5054C237833B9044B13B10448AFF3B1
:1001B00000800123237010BD6C03002000000000AC
:1001C0003042000808B5034B1BB103490348AFF3A5
:1001D000008008BD000000007003002030420008CD
:1001E00053B94AB9002908BF00281CBF4FF0FF319E
:1001F0004FF0FF3000F07AB9ADF1080C6DE904CE94
:1002000000F006F8DDF804E0DDE9022304B07047F1
:100210002DE9F0478C460D460446089E002B51D12F
:100220008A4217466DD9B2FA82FEBEF1000F0BD09A
:10023000CEF1200C01FA0EF520FA0CFC02FA0EF7B2
:100240004CEA050C00FA0EF44FEA174A250CBCFBE9
:10025000FAF81FFA87F90AFB18CC45EA0C4508FBA7
:1002600009F3AB420AD9ED1908F1FF3280F023817E
:10027000AB4240F22081A8F102083D44ED1AA4B23D
:10028000B5FBFAF00AFB105544EA054400FB09F9F6
:10029000A14509D9E41900F1FF3380F00A81A14595
:1002A00040F2078102383C44A4EB090440EA0840CC
:1002B0000021002E61D024FA0EF400233460736014
:1002C000BDE8F0878B4207D9002E54D0002186E884
:1002D00021000846BDE8F087B3FA83F1002940F019
:1002E0008E80AB4202D3824200F2FA80841A65EB20
:1002F00003050120AC46002E3FD086E81010BDE873
:10030000F08712B90127B7FBF2F7B7FA87FEBEF103
:10031000000F34D1EB1B3A0C1FFA87FC0121B3FB11
:10032000F2F8250C02FB183345EA03450CFB08F3F1
:10033000AB4207D9ED1908F1FF3002D2AB4200F20F
:10034000D1808046ED1AA3B2B5FBF2F002FB105546
:1003500043EA05440CFB00FCA44507D9E41900F16D
:10036000FF3302D2A44500F2B8801846A4EB0C0477
:1003700040EA08409DE731463046BDE8F087CEF1BF
:10038000200405FA0EF307FA0EF720FA04F83A0CE7
:1003900025FA04F448EA0308B4FBF2F14FEA1845E1
:1003A00002FB11441FFA87FC45EA044501FB0CF3EC
:1003B000AB4200FA0EF409D9ED1901F1FF3080F0DB
:1003C0008A80AB4240F2878002393D44EB1A1FFA23
:1003D00088F5B3FBF2F002FB103345EA034500FB5E
:1003E0000CF3AB4207D9ED1900F1FF386FD2AB42E5
:1003F0006DD902383D44EB1A40EA01418FE7C1F163
:10040000200722FA07F88B4005FA01F448EA0303B3
:1004100020FA07FE4FEA134CFD404EEA040EB5FBEE
:10042000FCF94FEA1E440CFB19551FFA83F844EA05
:10043000054509FB08F4AC4202FA01F200FA01FAA0
:1004400008D9ED1809F1FF3043D2AC4241D9A9F1E6
:1004500002091D442D1B1FFA8EFEB5FBFCF00CFBA0
:1004600010554EEA054400FB08F8A04507D9E418EA
:1004700000F1FF3529D2A04527D902381C4440EAB3
:100480000940A4EB0804A0FB02894C45C6464D4632
:1004900015D312D056B1BAEB0E0364EB050404FA7F
:1004A00007F7CB401F43CC40376074600021BDE8A4
:1004B000F0871846F8E69046E0E6C245EAD2B8EB87
:1004C000020E69EB03050138E4E72846D7E740460A
:1004D00091E78146BEE7014678E702383C4445E7AC
:1004E000084608E7A8F102083D442BE7704700BF23
:1004F000014B1860704700BF5C430020014B18603F
:10050000704700BF60430020024B03EBC00040680F
:10051000704700BF3443002000207047014B18880B
:10052000704700BF8803002001288CBF00200120F5
:1005300070470000024B1B6803B11847FEE700BF7D
:100540005C43002008B50A4B0A491A788A5C82424B
:1005500005D248F20100FFF7EDFF002008BD1A1890
:1005600092F82020082AF8D003EB4003988A08BDAF
:10057000344300206442000808B5084B08491A7843
:100580008A5C824205D248F20100FFF7D3FF0820BF
:1005900008BD034493F8200008BD00BF3443002089
:1005A0006442000808B5084B08491A788A5C824200
:1005B00005D248F20100FFF7BDFF002008BD03EBA4
:1005C0004003988A08BD00BF3443002064420008FD
:1005D00008B500F0ABFB80B208BD000010B50020EC
:1005E00000F0A4FB0C4C94F82430C0B2834218BF36
:1005F00084F82400012000F099FB94F82530C0B263
:100600008342064B18BF84F825001B6813B1BDE870
:100610001040184710BD00BF344300206043002045
:1006200010B52B4C2070002000F0ECFB012000F0F6
:10063000E9FB022000F0E6FB032000F0E3FB237857
:100640000C2B44D8DFE803F00707070715151A1A23
:1006500025252D2D3800002000F0F8FB012000F0AA
:10066000F5FB022000F0F2FB0320BDE8104000F093
:10067000EDBB012000F0C6FB0020F0E7032000F0F6
:10068000C1FB002000F0E2FB012000F0DFFB0220B4
:10069000EBE7012000F0B6FB032000F0B3FB0020E5
:1006A000F3E7022000F0AEFB032000F0ABFB0020DC
:1006B00000F0CCFB0120D8E7012000F0A3FB0220D2
:1006C00000F0A0FB032000F09DFB0020CDE710BD53
:1006D0003443002070B50C4C064600F0CBFAA31949
:1006E000002583F824502378082B0BD92EB901203C
:1006F00000F0C0FA84F8256070BD284600F0BAFA10
:1007000084F8245070BD00BF3443002070B50F4DF5
:100710002B18012483F824402B78082B064610D987
:10072000002100F0CFFA21462EB9204600F0CAFA87
:1007300085F8254070BD002000F0C4FA85F82440FB
:1007400070BD2146BDE8704000F0BCBA34430020C3
:1007500000487047000000200B4B1A78082A08D880
:100760000123934040F27312134204D113F08C031F
:1007700005D100207047003018BF012070470128C4
:1007800094BF00200120704734430020134B1B7896
:100790000A2B1FD8DFE803F0060B1216060B061211
:1007A000061E1B00012894BF00200120704703286B
:1007B00012D0022814BF00200120704701280BD856
:1007C0000128F7E7032808D00228F9D1704700F084
:1007D000FD00F5E7002070470220704734430020F9
:1007E000214B1A780B2A3DD8DFE802F0060E151AC5
:1007F0002124272B3032380718B9187F10F1FF3029
:100800002DE05B7F012B02E00028F6D0012814BF09
:1008100003200220704730B3012824D09B7FF1E7EA
:1008200008B301281FD0022818BF032070470028F2
:10083000E7D170470028E9D170470028DDD00220B9
:10084000704780B1012818BF022070470028FAE7DE
:100850001B7F012B14BF022000207047003018BFFF
:1008600001207047002070473443002008B5174B23
:100870001A780B2A1DD8DFE802F0061A0C1C111C8E
:100880001A1C1C221C0758B9187F431E5842584195
:1008900008BD02280DD19B7F012B05E0012808D15E
:1008A0005B7F012B18BF022008BF032008BD002872
:1008B000EAD048F20200FFF73DFEFF2008BD1B7F93
:1008C000012B0CBF0220002008BD00BF34430020D4
:1008D0000D4B1B780B2B14D8DFE803F006080C1324
:1008E000111308131306130601207047B0FA80F0A5
:1008F00040097047022814BF0020012070470128DA
:10090000F9E70020704700BF3443002070B5134C56
:10091000134A2378D35C8342054605D248F201008E
:10092000BDE87040FFF706BE231893F82030082B6F
:1009300012D0FFF755FF06462846FFF7C9FF20B142
:100940002846FFF793FF00F007FB30462C4400F0E9
:1009500003FB082384F8203070BD00BF344300201F
:10096000644200081C4938B50D781C4B5B5D83421E
:10097000044605D248F20100BDE83840FFF7DABD71
:10098000FFF7EAFE0B1893F8243093B1013D092DCF
:100990001FD8DFE805F00513171E051E131E1E15D0
:1009A000BCB10B6A0E4A23F07F4323F0FF0393424E
:1009B0000FD12046BDE83840FFF7A8BF012C08D86A
:1009C0000A8C02E0012CFBD94A8C40F203339A4294
:1009D000EEE7FFF77FFEECE73443002064420008B7
:1009E00000030300F8B5254C254A2378D35C8342E5
:1009F00005460E4605D248F20100BDE8F840FFF773
:100A000099BD231893F82020082A04D01B7F8B421D
:100A100033D0FFF77BFF6319032228461E7783F844
:100A20002020FFF799FE07462846FFF7D9FE064625
:100A30003846FFF76BFE2846FFF74AFF05F108032B
:100A4000B10004EB430398B11A792144C2F1640266
:100A5000D2B24968304600F03BFA2846FFF706FF5D
:100A600004EB800464226168BDE8F84000F030BA0D
:100A70000C441A7961683046F6E7F8BD344300202B
:100A800064420008F8B5154C154A2378D35C8342BC
:100A900006460D4605D248F20100FFF74BFD002047
:100AA000F8BD04EB40039982231893F82030082BFB
:100AB0000FD0FFF795FE07463046FFF709FFBB0052
:100AC00048B1C5F164021C44D2B26168384600F0F6
:100AD000FFF90120F8BD1C44EAB2F6E734430020D8
:100AE000644200082DE9F0471E4FDFF87C808F42FA
:100AF0004FEA400028BF0F465FFA80F9002609EB55
:100B00000605EDB208EB850A2846CAF80470FFF71F
:100B10003DFE08EB0003044693F82030082B16D066
:100B2000FFF7D6FEC0B12046FFF7A0FEA84209D0CD
:100B300008EB4404DAF80410227DC2F16402D2B258
:100B4000284602E0DAF80410642200F0C1F9013608
:100B5000022ED4D1BDE8F08708EB44043946227D4B
:100B6000EEE700BFA08601003443002070B50D4CB5
:100B700028220021204603F09AFA44F6206363609D
:100B8000A360E360236104F11B02002364260120BB
:100B90000821E5180233AE8202F8010F082B11710B
:100BA000F7D170BD3443002030B5064C034600F148
:100BB000280518685968224603C20833AB42144618
:100BC000F7D130BD344300200A4A138810B50133F1
:100BD0000446138000F0BCF83CB9FFF7C7FF064B92
:100BE000BDE810401878FFF71BBD2046FFF7DCFF7B
:100BF000F5E700BF880300203443002010B586B01D
:100C0000194B002400941A6B42F004021A631B6B08
:100C100003F004030093009B71B94FF40053019358
:100C2000022303930493114B029153F8200001A96E
:100C300000F04CFB06B010BD0129FBD14FF400536E
:100C400001930B4B0293094B039453F8200001A925
:100C500000F03CFB22460F21282000F0E5FA282076
:100C600000F016FBE6E700BF0038024064010020F8
:100C70000000211070B5104B104C002886B014BF36
:100C80001C464FF480654FF0010318BF0225002673
:100C900001A92046019502930396049300F016FBE8
:100CA00072B632462946204600F062FC044B5D6174
:100CB00062B606B070BD00BF0008024000000240EE
:100CC000003C0140F0B5154B154C002816BF1C46E2
:100CD0004FF4806502250F4687B04FF00102294688
:100CE00020460CBF2826072600F042FC17B114202E
:100CF00000F074FA0B4B029301A9012320460393E1
:100D00000493019500F0E2FA074B30465D6100F074
:100D1000CDFA304600F0BCFA07B0F0BD0008024042
:100D20000000024000002110003C014008B5064BC5
:100D300000280CBF4FF480610221044818BF1846F8
:100D400000F010FC08BD00BF000802400000024097
:100D5000F0B589B00024284B00941A6B274E42F05E
:100D600004021A631A6B02F004020092009A0194C2
:100D70001A6B42F001021A631A6B02F0010201922F
:100D8000019A02941A6B42F002021A631B6B0594DB
:100D900003F00203012502934FF4806703A9304654
:100DA000029B04950695039700F090FA2246394677
:100DB000304600F0DDFB22460421282000F034FA02
:100DC000282000F065FA049506950D4D059402263D
:100DD00003A92846039600F079FA224631462846B0
:100DE00000F0C6FB22460421072000F01DFA072070
:100DF00000F04EFA09B0F0BD003802400000024099
:100E00000008024002280ED0032810D001280A4B07
:100E100005D00A4803600123037700F0C8BE0848E4
:100E200003600223F8E707484FF08043F2E70648E3
:100E30004FF08043F4E700BF00040040244400204A
:100E400064430020A4430020E443002070B502283E
:100E50008AB02AD003282CD00128184B1FD0184C58
:100E6000236001232377002600253F236360A560CC
:100E7000E5602561204600F0C5FF6023324603A9E6
:100E80002046039304950595079501F001F801A903
:100E900020460195029501F0B5F80AB070BD094CE5
:100EA0002360022323770426DEE7074C4FF08043BC
:100EB000D6E7064C4FF08043F2E700BF0004004045
:100EC0002444002064430020A4430020E443002085
:100ED00070B505460C46164600F0DEFC022D23D008
:100EE000032D25D0012D174A1AD0174B1A60002167
:100EF000A401B0FBF4F01C680138E062D86046B190
:100F0000642E324628BF642250436422B0FBF2F0C4
:100F1000461C89B966631846BDE8704001F028B8E0
:100F20000A4B1A600421E3E7094B4FF08042DDE7EA
:100F3000084B4FF08042F4E709B1A663EBE7266463
:100F4000E9E700BF0004004024440020644300207F
:100F5000A4430020E4430020032810D8DFE800F079
:100F60000206090C0648002101F01EB804210548BC
:100F7000FAE700210448F7E704210448F4E7704742
:100F80002444002064430020A4430020E4430020C4
:100F900000207047002070470020704700207047F5
:100FA000002070470020704700207047034B1B68EB
:100FB0001BB1D3F8F03003B11847FEE78C030020D3
:100FC000044B1B6813B19B6803B1184740F602003D
:100FD000FFF7ECBF8C030020044B1B6813B1DB68E8
:100FE00003B1184740F60300FFF7E0BF8C03002071
:100FF000054B1B681BB11B680BB1084618474FF423
:101000000060FFF7D3BF00BF8C030020044B1B68B8
:1010100013B15B6903B1184740F60500FFF7C6BF7F
:101020008C030020074B1B6810B523B15B6A13B11A
:10103000BDE81040184740F60900FFF7B7FF082049
:1010400010BD00BF8C030020044B1B6813B15B6D07
:1010500003B1184740F61500FFF7A8BF8C03002026
:10106000074B1B6810B523B19B6E13B1BDE8104050
:10107000184740F61A00FFF799FF002010BD00BF87
:101080008C030020074B1B6810B52BB1D3F88830B8
:1010900013B1BDE81040184740F62200FFF786FF65
:1010A000002010BD8C030020054B1B681BB1D3F83A
:1010B000043103B1184740F64100FFF777BF00BF86
:1010C0008C030020054B1B681BB1D3F80C3103B116
:1010D000184740F64300FFF769BF00BF8C030020AC
:1010E000264B70B5188041F64A1398420D46244CA1
:1010F0000CD1FFF74DFF20602368E3B3D3F84431F0
:10110000CBB3C5B32846BDE870401847012802D1CB
:10111000FFF744FFEFE741F63E03984202D1FFF7A5
:1011200017FBE8E7B0F5C25F02D1FFF739FFE2E74E
:10113000DC2802D1FFF736FFDDE741F6461398427F
:1011400003D041F64813984202D1FFF723FFD2E7BC
:1011500020F0020341F65012934202D1FFF71CFF28
:10116000C9E7F02801D0FA2802D1FFF71DFFC2E736
:1011700000232360C0E7002070BD00BF8A03002069
:101180008C03002008B50B4B1A6842F400721A60F9
:101190001A6842F480621A601A6842F480721A6017
:1011A000032000F02FF8002002F0A0FE02F09CFDCA
:1011B000002008BD003C0240034A044B11681B7824
:1011C0000B441360704700BF644400206801002096
:1011D000014B1868704700BF6444002038B50446CE
:1011E000FFF7F6FF631C1CBF054B1B78054618BFB5
:1011F000E418FFF7EDFF401B8442FAD838BD00BF6A
:1012000068010020074AD36823F4E0631B041B0C29
:1012100043F0BF63000243F4003300F4E060034393
:10122000D360704700ED00E0174B30B5DC68C4F3C5
:101230000224C4F10703251D042B28BF0423062D17
:101240004FF0010505FA03F303F1FF338CBF033CB4
:1012500000241940A14005FA04F4013C2240002872
:1012600042EA01024FEA0212ADBF00F1604000F015
:101270000F00064B00F56140B5BFD2B2D2B21A548E
:1012800080F8002330BD00BF00ED00E014ED00E069
:10129000002808DB4209012300F01F0003FA00F0D8
:1012A000014B43F82200704700E100E0002809DB11
:1012B0004309012200F01F0002FA00F06033024AE5
:1012C00042F82300704700BF00E100E02DE9F04F35
:1012D00085B00B68DFF89C81644A01934FF00109E7
:1012E0000023019C09FA03F707EA0406B74240F01D
:1012F000AD804C6824F0100ABAF1020F16D14FEA03
:10130000D30C00EB8C0C03F0070BDCF820504FEAF9
:101310008B0B4FF00F0E0EFA0BFE25EA0E0E0D6929
:1013200005FA0BF545EA0E05CCF820504FEA430CC0
:101330000325D0F800B005FA0CF5ED4304F0030ED8
:101340000BEA050B0EFA0CFE0AF1FF3A4EEA0B0E01
:10135000BAF1010F0095C0F800E015D8D0F808E008
:1013600005EA0E0ECD6805FA0CFA4AEA0E0EC0F830
:1013700008E0D0F804E02EEA0707C4F3001E0EFAD6
:1013800003FE4EEA07074760C768009D3D408F682F
:1013900007FA0CF73D43C560E50057D54FF0000B49
:1013A000CDF80CB0D8F84470314D47F48047C8F8F8
:1013B0004470D8F8447007F480470397039F23F0E4
:1013C000030707F1804707F59C3703F0030CD7F8B4
:1013D00008A04FEA8C0C4FF00F0E0EFA0CFEA8423C
:1013E0002AEA0E0E39D005F58065A84237D005F5FA
:1013F0008065A84235D005F58065A84233D005F553
:101400008065A84214BF0725042505FA0CF545EAB6
:101410000E05BD601568F74314F4803F0CBF3D40D6
:1014200035431560556814F4003F0CBF3D4035430B
:101430005560956814F4801F0CBF3D40354395609E
:10144000D568A40254BF3D403543D5600133102B0D
:101450007FF447AF05B0BDE8F08F5D46D5E70125C5
:10146000D3E70225D1E70325CFE700BF003C0140C9
:1014700000000240003802402DE9F04F374C0023B5
:101480004FF0010A4FF00F084FF0030B0AFA03FE6A
:101490000EEA0102964553D123F0030505F180457C
:1014A00005F59C3503F00307AE68BF0008FA07F99D
:1014B00006EA090C2A4EB04247D006F58066B042D3
:1014C00045D006F58066B04243D006F58066B0424E
:1014D00041D006F58066B0420CBF04260726BE4008
:1014E000B44510D1AE6826EA0906AE602568D2433D
:1014F00015402560656815406560A5681540A560C4
:10150000E5682A40E2605A0005680BFA02F2D2430D
:10151000DE08154000EB8606056003F00705376A14
:10152000AD0008FA05F527EA05053562856815401E
:101530008560456825EA0E054560C5682A40C26099
:101540000133102BA2D1BDE8F08F0026C7E701269A
:10155000C5E70226C3E70326C1E700BF003C014000
:10156000000002400369194214BF012000207047A7
:101570000AB1816170470904FBE7000008B5044B1C
:101580005969014202D0586102F09EFC08BD00BFBB
:10159000003C01402DE9F341044618B9012002B096
:1015A000BDE8F0810368DD0710D42368980758D49C
:1015B00023681A0700F19A8023685B0700F1B8805E
:1015C000A269002A40F019810020E8E7A64B9A683A
:1015D00002F00C02042A07D09A6802F00C02082AD2
:1015E0000AD15B68590207D59F4B1B689A03DCD56B
:1015F0006368002BD9D1D1E763689B4DB3F5803F79
:1016000011D12B6843F480332B60FFF7E1FD964D39
:1016100006462B689B03C8D4FFF7DAFD801B6428BD
:10162000F7D90320BBE7B3F5A02F04D12B6843F40F
:1016300080232B60E5E72A6822F480322A602A683A
:1016400022F480222A60002BDFD1FFF7C1FD06467D
:101650002B689F03A9D5FFF7BBFD801B6428F7D932
:10166000DFE7814B9A6812F00C0F07D09A6802F0FE
:101670000C02082A11D15B685E020ED47A4B1A68FC
:10168000950702D5E268012A88D11A68216922F0FB
:10169000F80242EAC1021A608AE7E268734BB2B10B
:1016A00001221A60FFF794FD6F4D06462B689807DC
:1016B00007D52B68226923F0F80343EAC2032B60A5
:1016C00076E7FFF785FD801B0228EFD9A9E71A60AE
:1016D000FFF77EFD644D06462B6899077FF568AFDE
:1016E000FFF776FD801B0228F6D99AE76269604B06
:1016F0007AB101221A60FFF76BFD5B4D06466B6FF6
:101700009F073FF559AFFFF763FD801B0228F6D90D
:1017100087E71A60FFF75CFD534D06466B6F98072D
:101720007FF54AAFFFF754FD801B0228F6D978E712
:101730004D4B1A6C12F0805228D101921A6C42F073
:1017400080521A641B6C03F080530193019B0126A5
:10175000484D2B68D9051BD5A368434D012B27D1D4
:101760002B6F43F001032B67FFF732FD3E4D074619
:1017700041F288382B6F9B0739D5002E3FF420AFFC
:10178000394A136C23F08053136419E70026DFE70E
:101790002B6843F480732B60FFF71AFD07462B6814
:1017A000DA05D9D4FFF714FDC01B0228F7D938E7B2
:1017B000052B04D12B6F43F004032B67D0E72A6F6E
:1017C00022F001022A672A6F22F004022A67002B06
:1017D000CAD1FFF7FDFC41F2883807462B6F980706
:1017E000CBD5FFF7F5FCC01B4045F7D919E7FFF74C
:1017F000EFFCC01B4045BDD913E71B4DAB6803F0A0
:101800000C03082B3FF4CAAE1B4E0023022A3360A0
:1018100034D1FFF7DDFC07462B6899011ED4226AFC
:10182000E3691343626A43EA8213E26A43EA0263AA
:10183000A26A0D4C5208013A43EA02436B6001234D
:101840003360FFF7C5FC054623689A013FF5BCAE3F
:10185000FFF7BEFC401B0228F6D9E2E6FFF7B8FC12
:10186000C01B0228D8D9DCE60038024000004742FD
:10187000800E47420070004060004742FFF7A8FC1E
:1018800004462B689B017FF59FAEFFF7A1FC001B70
:101890000228F6D9C5E600BF134908B58B6803F0E6
:1018A0000C03042B03D0082B03D0104808BD1048AC
:1018B00008BD4A684B68496813F4800314BF0C489C
:1018C0000A48C1F3881118BF002302F03F02A1FBB0
:1018D0000001FEF785FC044B5B68C3F30143013351
:1018E0005B00B0FBF3F008BD003802400024F400B8
:1018F00000127A002DE9F0410D46044610B901208E
:10190000BDE8F081444B1A6802F00F028A4228D3E6
:1019100021688F072DD4C80740D43F4B1A6802F0C6
:101920000F02954266D3226851076CD4130707D57E
:101930003A4A2169936823F4604343EAC103936000
:10194000FFF7AAFF354B364A9B68C3F30313D35CFA
:10195000D840344B1860002002F0C8FA0020BDE8DF
:10196000F081CAB21A701B6803F00F039942C6D106
:10197000CEE72A4B11F0040F1EBF9A6842F4E052E2
:101980009A600E0742BF9A6842F460429A609A6871
:10199000A06822F0F00202439A60BCE762681F4B25
:1019A000012A1DD11B6813F4003FA8D01B4EB36859
:1019B00023F003031343B360FFF70AFC41F28838B6
:1019C0000746B368626803F00C03B3EB820FA4D040
:1019D000FFF7FEFBC01B4045F3D90320BDE8F081B3
:1019E000911E01291B6802D813F0007FDDE713F078
:1019F000020FDAE7EAB21A701B6803F00F039D4288
:101A00007FF47DAF8FE70549E0688B6823F4E053EE
:101A100003438B608AE700BF003C0240003802406D
:101A2000CC42000898010020044B054A9B68C3F390
:101A30008223D35C034A1068D840704700380240C4
:101A4000DC42000898010020044B054A9B68C3F360
:101A50004233D35C034A1068D840704700380240D4
:101A6000DC420008980100200F2303600B4B9A68AA
:101A700002F0030242609A6802F0F00282609A6803
:101A800002F4E052C2609B68DB0803F4E053036198
:101A9000034B1B6803F00F030B60704700380240D4
:101AA000003C0240036A23F001030362036A70B53D
:101AB000446882690D6822F073022A438D6823F01E
:101AC00002032B430A4DA8420BD1CD688E6923F047
:101AD00008032B434D6924F44074354323F0040379
:101AE0002C43446082614A684263036270BD00BF58
:101AF00000000140036A23F480730362036A70B537
:101B00004468C2690D6822F073022A438D6823F489
:101B1000007343EA05230B4DA8420DD1CD688E69B1
:101B200023F4006343EA05234D6924F4405435430C
:101B300023F4806344EA05144460C2614A68C263C6
:101B4000036270BD00000140036A23F48053036206
:101B5000036A30B54468C2690D6822F4E64242EA7D
:101B600005228D6823F4005343EA0533064DA8424D
:101B700002BF4D6924F4804444EA85144460C26184
:101B80004A680264036230BD000001407047036888
:101B9000DA6842F00102DA609A6802F00702062A67
:101BA0001EBF1A6842F001021A600020704702232B
:101BB00010B580F83D300368196A41F211121142E4
:101BC000044608D1196A40F24442114202BF1A6821
:101BD00022F001021A60204602F04CF9002084F83D
:101BE0003D0084F83C0010BD704770477047704757
:101BF00003681A69910710B504460ED5DA68920792
:101C00000BD56FF002021A619B6901229B070277D4
:101C100077D0FFF7EAFF0023237723681A6950077C
:101C200010D5DA6851070DD56FF004021A619B696F
:101C3000022213F4407F2277204668D0FFF7D5FFB9
:101C40000023237723681A6912070FD5DA68100773
:101C50000CD56FF008021A61DB690422990722771C
:101C600020465AD0FFF7C1FF0023237723681A6963
:101C7000D20610D5DA68D0060DD56FF010021A61C1
:101C8000DB69082213F4407F227720464BD0FFF710
:101C9000ACFF0023237723681A69D10708D5DA68D7
:101CA000D20705D56FF001021A61204602F002F852
:101CB00023681A69100608D5DA68110605D56FF091
:101CC00080021A61204600F0BCF923681A695206A6
:101CD00008D5DA68500605D56FF040021A61204633
:101CE000FFF785FF23681A69910622D5DA68920604
:101CF0001FD56FF0200220461A61BDE8104000F0A9
:101D00009FB9FFF771FF2046FFF770FF83E7FFF7EA
:101D10006BFF2046FFF76AFF92E7FFF765FF20465B
:101D2000FFF764FFA0E7FFF75FFF2046FFF75EFFC6
:101D3000AFE710BD244A036890420ED0B0F1804F47
:101D40000BD0A2F57C42904207D002F5806290420F
:101D500003D002F58062904215D14A6823F07003E7
:101D60001343194A904219D0B0F1804F16D0A2F512
:101D70007C42904212D002F5806290420ED002F571
:101D8000806290420AD0114A904207D002F58062E8
:101D9000904203D002F58062904203D1CA6823F4D6
:101DA000407313434A6923F08003134303608B6835
:101DB000C3620B688362044B984204BF0B690363E0
:101DC00001234361704700BF000001400040014013
:101DD00010B50446A0B190F83D3003F0FF021BB9E6
:101DE00080F83C20FFF7D2FE022384F83D302068C3
:101DF000211DFFF79FFF012384F83D30002010BD17
:101E0000012010BD10B50446A0B190F83D3003F09C
:101E1000FF021BB980F83C2001F0BCFF022384F8CC
:101E20003D302068211DFFF785FF012384F83D30F8
:101E3000002010BD012010BD036A23F010030362CF
:101E4000036A70B5446882690D6822F4E64242EA8A
:101E500005228D6823F0200343EA05130B4DA842A9
:101E60000DD1CD688E6923F0800343EA05134D69D7
:101E700024F44064354323F0400344EA850444607D
:101E800082614A688263036270BD00BF0000014046
:101E900038B590F83C30012B04464FF0020025D0B5
:101EA000012384F83C3084F83D000C2A18D8DFE880
:101EB00002F0071717171E1717172F1717174000CD
:101EC0002068FFF7EFFD236809699A6942F008026C
:101ED0009A619A6922F004029A619A690A439A61A6
:101EE0000123002084F83D3084F83C0038BD206890
:101EF000FFF7A2FF236809699A6942F400629A61B8
:101F00009A6922F480629A619A6942EA0122E6E7BC
:101F10002068FFF7EFFD23680969DA6942F00802DB
:101F2000DA61DA6922F00402DA61DA690A43DA6115
:101F3000D6E72068FFF708FE23680969DA6942F4EA
:101F40000062DA61DA6922F48062DA61DA6942EA0F
:101F50000122ECE7036A01F01F0110B501248C4057
:101F600023EA04030362036A8A401A43026210BD33
:101F700010B5044601220068FFF7ECFF2368094A08
:101F8000934202BF5A6C42F400425A649A6802F0CB
:101F90000702062A1EBF1A6842F001021A600020DA
:101FA00010BD00BF0000014010B5044600220068CB
:101FB000FFF7D0FF2368124A93420DD1196A41F20C
:101FC0001112114208D1196A40F24442114202BF73
:101FD0005A6C22F400425A64196A41F211121142F9
:101FE00008D1196A40F24442114202BF1A6822F035
:101FF00001021A60012384F83D30002010BD00BFAB
:102000000000014090F83C30012B30B54FF0020346
:1020100014D0046880F83D306268A3680D68496890
:1020200022F0700223F080030B432A436260A36016
:10203000012380F83D30002380F83C30184630BD45
:10204000704770472DE9F0470668C2683369C16977
:1020500023F4405313433361044683680069F268F4
:102060000343606922F41642034322F00C020B433F
:102070001343F3607369A26923F440731343B1F50A
:10208000004F73617A4B7CD19E4203D003F580638D
:102090009E4244D1FFF7D8FC192505FB00F3606888
:1020A0004FF064094000B3FBF0F3B3FBF9F34FEAE0
:1020B0000318FFF7C9FC636868435B00B0FBF3F7E4
:1020C000FFF7C2FC636868435B00B0FBF3F3B3FB4C
:1020D000F9F309FB1373DB003233B3FBF9F35B0055
:1020E00003F4F877FFF7B0FC626868435200B0FB76
:1020F000F2FAFFF7A9FC636868435B00B0FBF3F3F7
:10210000B3FBF9F309FB13A3DB003233B3FBF9F3A1
:1021100003F0070343443B44B360BDE8F087FFF797
:1021200083FC192505FB00F360684FF0640940004B
:10213000B3FBF0F3B3FBF9F34FEA0318FFF774FCBA
:10214000636868435B00B0FBF3F7FFF76DFC6368FF
:1021500068435B00B0FBF3F3B3FBF9F309FB1373C4
:10216000DB003233B3FBF9F35B0003F4F877FFF7DE
:102170005BFC626868435200B0FBF2FAFFF754FC64
:10218000B9E79E4202D03B4B9E4240D1FFF75CFC38
:10219000676819254FF0640905FB00F3BF00B3FB26
:1021A000F7F3B3FBF9F31F01FFF74EFC63686843D5
:1021B0009B00B0FBF3F8FFF747FC636868439B00A4
:1021C000B0FBF3F3B3FBF9F309FB13831B013233C9
:1021D000B3FBF9F303F0F008FFF736FC62686843DD
:1021E0009200B0FBF2FAFFF72FFC636868439B0094
:1021F000B0FBF3F3B3FBF9F309FB13A31B01323379
:10220000B3FBF9F303F00F0343EA080383E7FFF797
:102210000BFC676819254FF0640905FB00F3BF004C
:10222000B3FBF7F3B3FBF9F31F01FFF7FDFB6368A3
:1022300068439B00B0FBF3F8FFF7F6FB6368684365
:102240009B00B0FBF3F3B3FBF9F309FB13831B0112
:102250003233B3FBF9F303F0F008FFF7E5FB6268F4
:1022600068439200B0FBF2FAFFF7DEFBBDE700BF68
:102270000010014000140140F8B504460E46174610
:102280001D4621680B6836EA030301D10020F8BD22
:102290006B1CF7D095B92368DA6822F4D072DA6043
:1022A0005A6922F001025A61202384F8393084F8F7
:1022B0003A30002384F838300320F8BDFEF788FF59
:1022C000C01B8542DDD2E6E710B5044640B390F866
:1022D000393003F0FF021BB980F8382001F026FDE9
:1022E0002268242384F83930D36823F40053D36060
:1022F0002046FFF7A7FE23681A6922F490421A616C
:102300005A6922F02A025A61DA6842F40052DA600D
:1023100000202023E06384F8393084F83A3010BD7F
:10232000012010BD2DE9F0411F4690F83930202BD7
:1023300004460D4690464FD100294AD0002A48D085
:1023400090F83830012B47D0012380F83830002333
:10235000C363212380F83930FEF73AFFA4F82480C4
:102360000646A4F82680E38C9BB26BB93B46324606
:1023700040212046FFF780FFB0B9202384F8393090
:1023800084F83800BDE8F081E38C013B9BB2E38424
:10239000A368B3F5805F32463B464FF0800120468C
:1023A0000ED1FFF769FF10B10320BDE8F0812B8843
:1023B0002268C3F308035360236943B90235D2E7A7
:1023C000FFF75AFF0028EFD123682A785A600135B9
:1023D000C9E70120BDE8F0810220BDE8F0812DE9C8
:1023E000F0411F4690F83A30202B04460D469046A7
:1023F00052D100294DD0002A4BD090F83830012B13
:102400004AD0012380F838300023C363222380F8A8
:102410003A30FEF7DDFEA4F82C800646A4F82E80A4
:10242000E08D80B230B9202384F83A3084F8380047
:10243000BDE8F081E38D013B9BB2E385A368B3F572
:10244000805F32463B464FF02001204612D1FFF715
:1024500013FF10B10320BDE8F081236822695B6897
:1024600022B9C3F3080325F8023BD9E7DBB225F80C
:10247000013BD5E7FFF700FF0028EBD12368216976
:102480005B686A1C11B92B701546C9E703F07F031E
:10249000F9E70120BDE8F0810220BDE8F08108B530
:1024A00000F0F8FE002008BD70B5054646692A69AF
:1024B0004068B5F908400B4686B0296876B1AD6929
:1024C00065B1842C14BF0334002402958DE85000BC
:1024D00000F07CFE0590059806B070BD842C14BFFA
:1024E0000334002405AD92B28DE8300000F0A5FE63
:1024F0000128F0D00020EFE708B5002808BF012030
:1025000001F010F8002008BD00F1080343604FF00F
:10251000FF32C360036100238260036070470023C1
:102520000361704743684B609A688A609A6851609B
:102530009960036808610133036070470A68531C9F
:1025400030B50AD103695A684A6091608B6059605E
:10255000036808610133036030BD00F108035C6863
:102560002568AA42EFD32346F9E7416882680369E8
:102570008A60826851605968884208BF5A600022A8
:1025800002611A68013A1A601868704782B0002325
:1025900001930D4B1B68013308D04FF0500383F3B8
:1025A0001188BFF36F8FBFF34F8FFEE74FF05003DB
:1025B00083F31188BFF36F8FBFF34F8F019B002B05
:1025C000FCD002B0704700BF6C01002008480068D2
:1025D000006880F308884FF0000080F3148862B62A
:1025E00061B6BFF34F8FBFF36F8F00DF00BF0000F6
:1025F00008ED00E0DFF80C00016841F470010160B3
:102600007047000088ED00E04FF0807340F8043C14
:10261000074B40F80C3C21F001016FF0020340F839
:10262000081C40F8202C40F8243C4438704700BF78
:102630008D250008000000000000000000000000E0
:10264000074B19680868B0E8F04F80F30988BFF3BA
:102650006F8F4FF0000080F311887047AFF3008058
:10266000B03F00204FF0500383F31188BFF36F8F0A
:10267000BFF34F8F0A4A13680133012B13600DD14A
:10268000084B1B6813F0FF0F08D04FF0500383F383
:102690001188BFF36F8FBFF34F8FFEE7704700BF06
:1026A0006C01002004ED00E0084A136843B94FF0C4
:1026B000500383F31188BFF36F8FBFF34F8FFEE793
:1026C000013B13600BB983F3118870476C01002044
:1026D000EFF30980BFF36F8F154B1A681EF0100FD0
:1026E00008BF20ED108A20E9F04F10602DE90900A5
:1026F0004FF0500080F31188BFF34F8FBFF36F8FFF
:1027000000F034FF4FF0000080F3118809BC196815
:102710000868B0E8F04F1EF0100F08BFB0EC108A48
:1027200080F30988BFF36F8F704700BFAFF300805D
:10273000B03F002008B54FF0500383F31188BFF37A
:102740006F8FBFF34F8F00F0E3FD18B1034B4FF0D5
:1027500080521A60002383F3118808BD04ED00E065
:10276000084A0949002313600B60084B4FF47A7143
:102770001B68B3FBF1F30649013B0B6007231360B1
:10278000704700BF10E000E018E000E09801002072
:1027900014E000E0394B3A4A13B51968914208D168
:1027A0004FF0500383F31188BFF36F8FBFF34F8F48
:1027B000FEE71A68334B9A4208D14FF0500383F377
:1027C0001188BFF36F8FBFF34F8FFEE72E4B1A7840
:1027D000D2B20192FF221A701B782C4ADBB28DF81C
:1027E00003309DF8033003F050031370284B072289
:1027F0001A6000219DF80300000602F1FF340DD499
:1028000001B11A601A68032A11D04FF0500383F304
:102810001188BFF36F8FBFF34F8FFEE79DF8032042
:102820005200D2B28DF8032001212246E2E71202C3
:1028300002F4E0621A60019B134ADBB21370154B7D
:102840001A6842F470021A601A6842F070421A6004
:10285000FFF786FF104B00241C60FFF7CBFE0F4AEA
:10286000136843F040431360FFF7B0FE00F07EFEB4
:10287000FFF78CFE204602B010BD00BF00ED00E067
:1028800071C20F4170C20F4100E400E090030020CC
:102890009403002020ED00E06C01002034EF00E004
:1028A00010B50F4B1A68824218D35C681919884218
:1028B00001BF4168184609195960446801198A42E4
:1028C00007D1084909688A421FBF5168126809196F
:1028D00041609842026018BF186010BD1346E1E7DE
:1028E000A83F0020980300202DE9F041044600F0A5
:1028F00007FD3E493E4D0B680BBB3E4A56071FBFC6
:10290000D01D20F0070002F570531B1A14BF0246B9
:102910004FF470531344083B23F00703364E0B600B
:1029200000207060326058601860981A1360334B52
:1029300050601860324B18604FF000432B602F68D6
:10294000274216D1002C41D004F1080358071CBFC0
:1029500023F00703083363B1294A1668B34290464F
:1029600007D8254A15686868834204D809688D42EB
:1029700007D100242AE02C68002CF7D02A462546EF
:10298000F1E7296814681160C21A102A0FD9E818F3
:10299000410708D04FF0500383F31188BFF36F8FC6
:1029A000BFF34F8FFEE742606B60FFF779FF13497B
:1029B0006B680868F61A1F4386424FF00003C8F898
:1029C000006038BF0E6008346F602B6000F032FD8D
:1029D000630708D04FF0500383F31188BFF36F8F64
:1029E000BFF34F8FFEE72046BDE8F081980300203B
:1029F0009C3F00209C030020A83F0020A43F002013
:102A0000A03F002010B5044670B3184A50F8043CAB
:102A10001268134208D14FF0500383F31188BFF3BB
:102A20006F8FBFF34F8FFEE750F8081C41B14FF096
:102A3000500383F31188BFF36F8FBFF34F8FFEE70F
:102A400023EA020340F8043C00F05AFC084A54F818
:102A5000043C1168A4F108000B441360FFF720FF49
:102A6000BDE8104000F0E6BC10BD00BF9C3F002058
:102A7000A03F002010B50446FFF7F4FDA46BFFF75C
:102A800013FEB4FA84F0400910BD70B51546026C0F
:102A9000866B044642B905689DB9406800F05AFE4D
:102AA00065600136A66370BD6DB9806801F0F4FA07
:102AB000A368226C13446268A360934201D3236825
:102AC000A3600020EDE7C06801F0E6FA236CE2683D
:102AD00021685B421A448A42E2603EBF62689B18EA
:102AE000E360022DEDD10EB1013EEAE73046D8E7B2
:102AF000034610B41A6C084662B1D9685C68114488
:102B0000A142D96024BF1968D960D9685DF8044B27
:102B100001F0C2BA5DF8044B704770B50446FFF788
:102B2000A1FD94F8455004F124066DB2002D14DC8B
:102B3000FF2384F84530FFF7B7FDFFF793FD94F8C6
:102B4000445004F110066DB2002D12DCFF2384F80E
:102B50004430BDE87040FFF7A7BD636A002BE7D0A3
:102B6000304600F057FD08B100F0DEFD013D6DB2CA
:102B7000DCE72369002BE9D0304600F04BFD08B1BB
:102B800000F0D2FD013D6DB2DEE7000038B50D4624
:102B9000044640B94FF0500383F31188BFF36F8FA1
:102BA000BFF34F8FFEE7FFF75DFD206CE36B2268FC
:102BB000A2604343D1181B1A13446160E3600021F3
:102BC000FF23A16384F8443084F8453095B9236924
:102BD00063B104F1100000F01DFD38B10A4B4FF055
:102BE00080521A60BFF34F8FBFF36F8FFFF75CFD0A
:102BF000012038BD04F11000FFF786FC04F1240029
:102C0000FFF782FCF2E700BF04ED00E070B50D466F
:102C1000064640B94FF0500383F31188BFF36F8F1E
:102C2000BFF34F8FFEE748434830FFF75DFE044691
:102C300050B1002380F8463045B92060E663256432
:102C400001212046FFF7A2FF204670BD00F1480396
:102C50000360F3E72DE9FF47894601921F460446CA
:102C600040B94FF0500383F31188BFF36F8FBFF368
:102C70004F8FFEE7002940F08880036C002B00F0A6
:102C800084804FF0500383F31188BFF36F8FBFF33D
:102C90004F8FFEE7019E002E00F082804FF0500320
:102CA00083F31188BFF36F8FBFF34F8FFEE7019D52
:102CB0001DB9FFF7F9FC002058E016B902A800F092
:102CC000EBFCFFF7F1FC00F01BFBFFF7CBFC94F8EB
:102CD0004430FF2B08BF84F8448094F84530FF2B24
:102CE00008BF84F84580FFF7DFFC01A902A800F0C7
:102CF000DFFC002843D1FFF7B5FCA66BE56BFFF7BF
:102D0000D3FCAE4235D1019904F1100000F068FC0B
:102D10002046FFF702FF00F08DFB38B94FF08053DB
:102D2000CAF80030BFF34F8FBFF36F8F0126FFF754
:102D300099FCA26BE36B9A4201D3022FB7D13A46BA
:102D400049462046FFF7A1FE636A1BB104F1240047
:102D500000F060FC38B1194B4FF080521A60BFF39D
:102D60004F8FBFF36F8FFFF79FFC012004B0BDE8CA
:102D7000F0872046FFF7D1FE00F05CFBD6E7204647
:102D8000FFF7CBFE00F056FB95E7022F02D1E36B75
:102D9000012B0AD100F0CEFC00283FF47BAF0026C7
:102DA0004FF00008DFF814A0C1E74FF0500383F3A1
:102DB0001188BFF36F8FBFF34F8FFEE704ED00E084
:102DC0002DE9F04385B088460192044640B94FF0A2
:102DD000500383F31188BFF36F8FBFF34F8FFEE76C
:102DE000002940F08680036C002B00F082804FF0B9
:102DF000500383F31188BFF36F8FBFF34F8FFEE74C
:102E0000019E002E7AD04FF0500383F31188BFF358
:102E10006F8FBFF34F8FFEE7019D1DB9FFF744FC95
:102E2000002052E016B902A800F036FCFFF73CFC87
:102E300000F066FAFFF716FC94F84430FF2B08BF49
:102E400084F8447094F84530FF2B08BF84F845702F
:102E5000FFF72AFC01A902A800F02AFC00283DD1B6
:102E60002046FFF707FE98B3019904F1240000F013
:102E7000B7FB2046FFF751FE00F0DCFA38B94FF0FF
:102E80008053C9F80030BFF34F8FBFF36F8F012617
:102E9000FFF7E8FBA56B002DBED041462046013D63
:102EA000FFF726FEA563236963B104F1100000F06B
:102EB000B1FB38B1134B4FF080521A60BFF34F8F04
:102EC000BFF36F8FFFF7F0FB012005B0BDE8F08383
:102ED0002046FFF722FE00F0ADFAD8E72046FFF7C4
:102EE0001CFE00F0A7FA2046FFF7C4FD0028CED054
:102EF00096E700F01FFC002882D000260027DFF8AC
:102F00000490C5E704ED00E02DE9F0410646FFF727
:102F1000A9FB2D4B2D4C1A682D4F01321A602568E4
:102F2000002D45D126601B68012B1CD17819143562
:102F3000FFF7EAFA8C2DF9D1DFF8C080254D404625
:102F4000FFF7E2FA2846FFF7DFFA2348FFF7DCFA3B
:102F50002248FFF7D9FA2248FFF7D6FA214BC3F8E7
:102F60000080214B1D60214A214913680868013304
:102F70001360F26A01239340034314200B6000FBAB
:102F80000270311DFFF7CEFAFFF78EFB194B1B685D
:102F900063B12368DA6AF36A9A4207D2164B4FF09C
:102FA00080521A60BFF34F8FBFF36F8FBDE8F0817F
:102FB000104B1B68002BD6D12368DA6AF36A9A4259
:102FC00098BF2660CFE700BF48400020B03F0020F8
:102FD000BC3F00207440002090400020BC400020F6
:102FE000A8400020B43F0020B83F002058400020F7
:102FF0005C400020A440002004ED00E06040002080
:10300000064A13681968064B19B94FF0FF321A6067
:1030100070471268D268D2685268F8E7B43F00205F
:10302000884000202DE9F0470A9CDDF82480266BBB
:1030300002F18042013A06EB82069A4681464B1E17
:1030400026F0070604F134020F31587802F8010B1C
:1030500013F8010F08B18B42F7D1089D062D28BF48
:1030600006250027E5626564201D84F84370A76487
:10307000FFF755FAC5F1070504F11800FFF74FFAFD
:10308000E7642461A561646284F850705246494641
:103090003046FFF7B9FA2060B8F1000F01D0C8F848
:1030A0000040BDE8F08710B590F8513004463BB9B8
:1030B000006BFFF7A7FC2046BDE81040FFF7A2BC5D
:1030C000012BF9D0022B08D04FF0500383F3118865
:1030D000BFF36F8FBFF34F8FFEE710BD80B5DFF8F2
:1030E0005C80124F124C134D236863B9124B1B685E
:1030F000012BF8D94FF08053C8F80030BFF34F8F41
:10310000BFF36F8FEEE7FFF7ADFAFB68DE68301DA7
:10311000FFF72BFA2B68013B2B602368013B2360F0
:10312000FFF7C2FA3046FFF7BEFFDDE7BC400020E4
:103130004C40002048400020BC3F002004ED00E04F
:10314000F8B51B4B1B4E1D680446306804300F4613
:10315000FFF70BFA334640B93168174EC96A326837
:103160000120884022EA00023260621C07D137B198
:10317000196812480431BDE8F840FFF7D3B92C4470
:103180001A68A542546007D90D4A10681968BDE84D
:10319000F8400431FFF7D2B90A4A106819680431BF
:1031A000FFF7CCF9084B1A68944238BF1C60F8BD91
:1031B000D0400020B03F00205C400020A84000200C
:1031C000B83F0020B43F00208840002070B586B092
:1031D0000B9D0C9C45B94FF0500383F31188BFF34E
:1031E0006F8FBFF34F8FFEE744B94FF0500383F367
:1031F0001188BFF36F8FBFF34F8FFEE754260496FD
:10320000049E542E08D04FF0500383F31188BFF36F
:103210006F8FBFF34F8FFEE72563022584F851506F
:1032200005AD01950A9D02940095FFF7FBFE20462F
:10323000FFF76AFE059806B070BD2DE9F04307461A
:1032400085B09000884616469946FFF74DFB054627
:10325000E8B15420FFF748FB0446A8B1002380F8EA
:1032600051300D9B056301930C9B029000933246F5
:103270004B4641463846FFF7D5FE2046FFF744FE51
:10328000012005B0BDE8F0832846FFF7BBFB4FF0F7
:10329000FF30F6E710B588B0002407AA06A905A8F4
:1032A0000594069400F0A6FA059B0293069B0193F1
:1032B00000942346079A0D490D48FFF787FF90B108
:1032C0004FF0500383F31188BFF36F8FBFF34F8F1D
:1032D000084B4FF0FF321A60074B01221A60074B70
:1032E0001C60FFF757FA08B010BD00BF714200081C
:1032F000DD30000888400020A4400020D04000209D
:10330000024A136801331360704700BF5440002025
:103310002DE9F84F3C4B1B68002B53D13B4B1C68ED
:1033200001341C60BCB93A4B1A68126842B14FF0C4
:10333000500383F31188BFF36F8FBFF34F8FFEE706
:10334000344A1968106818601160334A13680133F1
:103350001360FFF755FE314D314F2B689C424FF003
:10336000000B3ED3DFF8A880DFF8C490D8F8002027
:10337000126872BB4FF0FF322A6032E006F1040A95
:103380005046FFF7F2F8B16A19B106F11800FFF7DD
:10339000ECF8F06AD9F80030012202FA00F1194382
:1033A000204BC9F800104FF0140E51460EFB0030B0
:1033B000FFF7B8F83868F16AC26A914228BF4FF047
:1033C000010BD3E7184A1368013313604FF0000B69
:1033D00011E0D8F80020D268D66871688C42CDD24E
:1033E00029603A680F4BD16A14224A439A58022A3C
:1033F00028BF4FF0010B0D4A1268002A18BF4FF08A
:10340000010B5846BDE8F88F54400020D040002002
:10341000B43F0020B83F00208C40002088400020AE
:10342000B03F0020BC3F002050400020D44000208E
:103430005C4000202DE9F843314C236843B94FF03C
:10344000500383F31188BFF36F8FBFF34F8FFEE7F5
:10345000FFF708F92368013B236024682CB100249E
:10346000FFF722F92046BDE8F883264B1B68002BA6
:10347000F5D0DFF8A890244FDFF8A480D9F8003009
:10348000E3B90CB1FFF7BCFD204D2C6844B1204ED0
:103490000127FFF73DFF00B13760013CF9D12C60F7
:1034A0001B4B1B68002BDAD01A4B4FF080521A606E
:1034B000BFF34F8FBFF36F8F0124D1E7D9F80C30E2
:1034C000DC68261D04F11800FFF74FF83046FFF7BF
:1034D0004CF8E26A3968012505FA02F314200B431F
:1034E00000FB028031463B60FFF71CF80A4BE26AA2
:1034F0001B68DB6A9A4224BF054B1D60BEE700BF14
:1035000054400020484000205C40002050400020F3
:10351000D440002004ED00E0B03F002090400020A7
:10352000BC3F002008B540B90E4B4FF080521A60E6
:10353000BFF34F8FBFF36F8F08BD0B4B196841B1BD
:103540004FF0500383F31188BFF36F8FBFF34F8F9A
:10355000FEE7FFF7D5FEFFF7F3FDFFF76BFF00284F
:10356000E2D008BD04ED00E054400020174B1A687B
:10357000174B10B512B101221A6010BD1A60154B1D
:103580001B68B3FA83F3DBB2C3F11F0314221249A1
:103590005A4388188C5844B94FF0500383F311886C
:1035A000BFF36F8FBFF34F8FFEE744680832646844
:1035B00044600A44944204BF62684260142202FBE1
:1035C00003135B68DA68054BD6E700BF5440002060
:1035D000D44000205C400020BC3F0020B03F0020D1
:1035E00010B50C4640B94FF0500383F31188BFF378
:1035F0006F8FBFF34F8FFEE7054B19681831FEF749
:103600009DFF20460121BDE81040FFF799BD00BF96
:10361000B03F002038B5C368DC6844B94FF05003B0
:1036200083F31188BFF36F8FBFF34F8FFEE704F171
:1036300018052846FEF799FF114B1B68E3B9251DB5
:103640002846FEF792FF0F49E26A0868012393407B
:1036500003430B600C4B1420294600FB0230FEF79D
:1036600061FF0A4BE26A1B68DB6A9A4283BF084B20
:1036700001201860002038BD29460648EFE700BF4A
:10368000544000205C400020BC3F0020B03F0020A0
:10369000D440002090400020034B1B680360034B84
:1036A0001B684360704700BF8C400020D040002062
:1036B00070B50C46054640B94FF0500383F31188AE
:1036C000BFF36F8FBFF34F8FFEE741B94FF0500349
:1036D00083F31188BFF36F8FBFF34F8FFEE7FEF7C1
:1036E000C1FF0F4B69681A682368581C0ED00D483B
:1036F0002E680068864201D08A420ED2521A9A423F
:1037000009D29B1A23602846FFF7C6FF0024FEF764
:10371000CBFF204670BD002323600124F7E700BFE4
:10372000D04000208C400020014B01221A607047DD
:10373000D4400020054B1B6833B1054B1B68002BA0
:103740000CBF02200020704701207047A4400020D9
:1037500054400020F8B5044608B90020F8BD224BBB
:103760001B68984208D04FF0500383F31188BFF3D1
:103770006F8FBFF34F8FFEE7836C43B94FF0500359
:1037800083F31188BFF36F8FBFF34F8FFEE7C16ADA
:10379000426C013B91428364DFD0002BDDD1051DDB
:1037A0002846FEF7E2FE114E114A50B9E76A14218D
:1037B000794373582BB913680120B84023EA0003FA
:1037C0001360636CE362C3F10701A1611168012416
:1037D00004FA03F008431060142000FB036029463C
:1037E000FEF7A0FE2046F8BDB03F0020BC3F002001
:1037F0005C400020034B0360034B0B60802313608D
:10380000704700BFD8420020D8400020FEE70000EB
:1038100010B50A4C002220212046FDF7A9FE4FF4E6
:103820007A70FFF77FFE204601222021FDF7A0FEDF
:103830004FF47A70FFF776FEECE700BF000002401D
:1038400073B50024174D01948DF8034064260022BF
:1038500001A92868FFF7B4FA012803D1019B642B62
:10386000C8BF0196104B00220DF103011868FFF745
:10387000A7FA012804D19DF803400CB1BDF804401B
:1038800021460020FDF7ECFB4B20FFF74BFE01210A
:103890000020FDF7D9FB4B20FFF744FE6420FFF723
:1038A00041FED4E7304300202C4300202DE9F041B5
:1038B00086B00023384D394FDFF8F08001938DF842
:1038C000033002AC4FF0FF33052221462846FEF7B5
:1038D00086FD064600285AD19DF80830762B2DD15A
:1038E000302301460A2220468DF8083000F068FC9B
:1038F00006A9334641F8140D294832460068FFF7FF
:10390000A9F9562301288DF8083005D025496423EC
:103910000F222846FEF706FD94E8030000238DF8E9
:1039200014102360237104906423052204A92846FF
:10393000FEF7F8FCC820FFF7F5FDC2E76D2B1CD1A0
:10394000302301460A2220468DF8083000F038FC6A
:1039500006A9003018BF012001F8150D3346324684
:10396000D8F80000FFF776F94D2301288DF80830CC
:10397000D2D0642310220C49CBE76E238DF8083097
:103980006F238DF8093070238DF80A30C4E7642363
:1039900006223946CBE700BF6C440020B94200083C
:1039A000304300209F420008AF4200082C43002013
:1039B00008B50120FEF7A0FDFBE708B50020FDF7E4
:1039C00061FB20B9FDF72EFB082800D0FEE708BDFB
:1039D00010B594B03022002108A800F068FB142232
:1039E000002103A800F063FB00221E4B0192196C1A
:1039F00041F0805119641B6C1B4903F08053019303
:103A0000019B02920B6823F4404343F400430B6094
:103A10000B680F9203F440430293029B01230B9324
:103A200010230C9310934FF4A873119304230224D2
:103A3000129308A8072308940E941393FDF7AAFD88
:103A400000B1FEE70F23039305904FF480530790D6
:103A5000214603A804940693FDF74CFF00B1FEE74E
:103A600014B010BD003802400070004080B58EB028
:103A7000FDF788FBFFF7ACFF01210020FDF7BEF842
:103A8000002211464FF0FF30FDF7CEFB012141F639
:103A90003E00FDF725FB7249724E41F63E00FDF7F0
:103AA000A7FA0920FDF700FB6F48FDF795FA6F486C
:103AB000FDF786FA42F210710020FDF703FB42F297
:103AC00010710120FDF7FEFA1422002107A800F072
:103AD000EEFA0024664B03941A6B664842F0040227
:103AE0001A631A6B02F004020392039A04941A6B8D
:103AF00042F080021A631A6B02F080020492049A68
:103B000005941A6B42F001021A631A6B02F001026B
:103B10000592059A06941A6B42F002021A631B6B17
:103B200003F00203224606932021069BFDF720FDA9
:103B30004FF40053079307A94F4B504808930227AF
:103B40000994FDF7C3FB07A94C4809940125079781
:103B50000896FDF7BBFB032307A946480793099482
:103B60000A9408970B95FDF7B1FB202307A941485C
:103B7000079309940A940895FDF7A8FB4FF4806316
:103B800007A93C48079309940896FDF79FFB30234B
:103B900007A93B48079309940A9408970B97FDF7E8
:103BA00095FB224621460720FDF73EFB0720FDF747
:103BB0006FFB224605212820FDF736FB2820FDF764
:103BC00067FB3048304A84604FF4E13380E80C00F2
:103BD0000C23C46004618461C4614361FEF774FB1B
:103BE000044600B1FEE7024604212846FFF70EF81E
:103BF000264BDFF8BC801860294622462846FFF78E
:103C000005F8234EC8F800000FCE07AD0FC596E8A3
:103C1000070085E80700214607A8FEF745FC1D4B75
:103C20001860D8F80030BBB1234680221A490194AD
:103C300000971A48FFF701FB234680221849019498
:103C400000971848FFF7F9FA01940097234680225D
:103C500015491648FFF7F1FAFEF721FCFEE700BF11
:103C60007001002000001110BB3900080D38000859
:103C7000003802400000024000002110000802400D
:103C8000000402406C440020004400403043002007
:103C900048420008684400207642000811380008B5
:103CA000824200084138000890420008AD38000800
:103CB0002C4300200268034B9A4201D1FDF77CBAE5
:103CC000704700BF0008004008B54FF49670FDF73C
:103CD00085FA044B4FF400525A612820BDE8084091
:103CE000FDF7E4BA003C014007B50F4B00220092FB
:103CF000596C41F480415964596C01F48041009140
:103D000000990192196C41F0805119641B6C03F009
:103D1000805301930F216FF00100019BFDF784FA9E
:103D200003B05DF804FB00BF0038024010B5044644
:103D300088B01422002103A800F0B9F92268134BBF
:103D40009A4220D103F5FA33002101911A6C1048F0
:103D500042F400321A641A6C02F400320192019AA1
:103D600002911A6B42F001021A631B6B03F001030C
:103D70000293029B0C2303930223049303A90723BA
:103D80000793FDF7A3FA08B010BD00BF0044004040
:103D90000000024000B50368324A93428BB032D132
:103DA000037F012B1AD1002302F50D320193116C10
:103DB00041F002011164126C079302F002020192B9
:103DC000019A08931022059202220692099226482F
:103DD00005A9FDF77BFA0BB05DF804FB022BFAD1C5
:103DE000002222490292086C40F002000864096C2B
:103DF000069301F002010291029907922021059198
:103E000008920993E3E7B3F1804FE4D1037F012BDC
:103E100014D1002215490392086C40F00100086497
:103E2000096C059301F001010391039907920221A6
:103E300006910892099305A90D48CAE7022BCAD139
:103E400000220A490492086C40F001000864096CE1
:103E5000059301F0010104910693049907920892D9
:103E60000123E7E70004004000040240003802405C
:103E7000000002400368104A93420CD1037F012BDB
:103E800018D102F50D320D48136C23F002031364B0
:103E90001021FDF7F1BAB3F1804F0BD1017F012959
:103EA00006D1074A0748136C23F001031364F0E7B7
:103EB0000229F6D0704700BF000400400004024011
:103EC0000038024000000240B0F5806F10B5044693
:103ED00001D0022801D1FDF799F8B4F5005F03D1B4
:103EE000BDE81040FFF7F0BE10BD000030B5014640
:103EF00089B000221E20FDF797F91E20FDF7C8F9B2
:103F00000025154B02951A6C144C42F004021A64F9
:103F10001B6C03F00403029301A903A8029BFDF7A5
:103F2000A3FDFDF781FD0E4B236040F2E733E36014
:103F300040000C4BB0FBF3F0013860602046256177
:103F4000A560FDF745FF20B92046FDF720FE09B02A
:103F500030BD0120FBE700BF00380240AC44002028
:103F60000008004040420F007047FEE7FEE7FEE712
:103F7000FEE770470220FDF701BB00000148FDF796
:103F800037BE00BFAC44002008B54FF48060FDF799
:103F9000F5FA4FF40050FDF7F1FA4FF48060FDF7A9
:103FA000EDFA4FF40050BDE80840FDF7E7BA000015
:103FB0000F49D1F8883043F47003C1F888300D4BB5
:103FC0001A68002042F001021A6098601A6822F014
:103FD000847222F480321A60074A5A601A6822F406
:103FE00080221A60D8604FF000638B60704700BF7A
:103FF00000ED00E00038024010300024DFF834D03B
:10400000002103E00C4B5B58435004310B480C4B30
:1040100042189A42F6D30B4A02E0002342F8043BCE
:10402000094B9A42F9D3FFF7C3FF00F011F8FFF7ED
:104030001DFD7047008001200044000800000020A2
:104040006C0300206C030020EC440020FEE700001D
:1040500070B50D4E0D4CA41BA4100025A54209D12E
:104060000B4E0C4C00F0E4F8A41BA4100025A54254
:1040700005D170BD56F8253098470135EEE756F862
:10408000253098470135F2E7F8430008F843000867
:10409000F8430008FC43000810B5431E0A4491424F
:1040A00000D110BD11F8014B03F8014FF7E70244AE
:1040B0000346934200D1704703F8011BF9E72DE94D
:1040C000F84F8046894692461F468B465D460A98C1
:1040D00015F8014B00F08AF82044467816F00806DF
:1040E0000BD12D2C0BD12C7801260BF1020567B1D9
:1040F000102F14D1302C0AD011E0AB46E6E72B2C60
:1041000004BF2C780BF10205F1E7302C27D12B7876
:1041100003F0DF03582B4BD16C7810270235002EAB
:104120000CBF6FF000414FF000410022B1FBF7FEE1
:10413000104607FB1E1CA4F13003092B11D81C46A6
:10414000A7421DDD531C07D0864516D301D1A445D7
:1041500013DB00FB0740012215F8014BEBE70A27B0
:10416000DDE7A4F14103192B01D8373CE8E7A4F1BE
:104170006103192B04D8573CE2E74FF0FF32EBE71D
:10418000531C08D12223C8F800300846BAF1000FAA
:1041900007D1BDE8F88F06B14042BAF1000F0CD04C
:1041A00022B1013DCAF80050BDE8F88F4D46F9E74D
:1041B0003024002FB3D10827B1E7BDE8F88F000005
:1041C000084B37B51C68084D236A002B08BF2B46E7
:1041D000009313460A4601462046FFF770FF03B0DE
:1041E00030BD00BF9C01002000020020D0F8EC0090
:1041F000704782B001B901A942B14BB113780B608D
:104200001278101C18BF012002B070471046FBE75F
:104210006FF00100F8E749B1FF2A85BF8A230360E8
:104220000A704FF0FF3098BF012070470846704772
:10423000F8B500BFF8BC08BC9E467047F8B500BF93
:08424000F8BC08BC9E46704763
:10424800C0420008B139000800000000000000006A
:1042580080000000000000000000000002030304CA
:1042680002030203020102010149444C45006C6546
:10427800645F636F6E74726F6C006D6F746F725FE2
:10428800636F6E74726F6C00756172745F696E74BF
:104298006572666163650076656C2073656E64207F
:1042A8006661696C0A0D006D6F76652073656E64D2
:1042B800206661696C0A0D0064656661756C7454EA
:1042C80061736B000000000000000000010203049D
:1042D8000607080900000000010203044300504FCC
:1042E800534958002E000020202020202020202084
:1042F800282828282820202020202020202020208E
:1043080020202020202020881010101010101010BD
:104318001010101010101004040404040404040401
:104328000410101010101010414141414141010189
:104338000101010101010101010101010101010165
:104348000101101010101010424242424242020273
:104358000202020202020202020202020202020235
:1043680002021010101020000000000000000000E1
:104378000000000000000000000000000000000035
:104388000000000000000000000000000000000025
:104398000000000000000000000000000000000015
:1043A8000000000000000000000000000000000005
:1043B80000000000000000000000000000000000F5
:1043C80000000000000000000000000000000000E5
:1043D80000000000000000000000000000000000D5
:0843E8000000000000000000CD
:0843F00020BEFF7F0100000068
:0443F800C5010008F3
:0443FC00A101000813
:10440000C90B00081D050008F1040008FD040008A0
:1044100000000000DD050008000000004505000860
:1044200000000000790500081905000800000000E0
:10443000A5050008000000000000000000000000CA
:1044400000000000000000000D090008000000004E
:1044500000000000E5090008000000000000000066
:104460000000000000000000850A000800000000B5
:10447000000000000000000000000000D506000859
:104480000D07000800000000D10500080000000032
:10449000000000000000000000000000000000001C
:1044A000000000000000000000000000000000000C
:1044B0000000000000000000650900080000000086
:1044C00000000000000000000000000000000000EC
:1044D00000000000000000000000000000000000DC
:1044E00000000000000000000000000000000000CC
:1044F000350500080000000000000000000000007A
:10450000000000002106000809050008E50A00086F
:10451000000000000000000000000000000000009B
:10452000000000000000000000000000000000008B
:10453000000000000000000000000000000000007B
:104540000000000029050008000000000000000035
:10455000000000000000000000000000000000005B
:10456000000000000008024001000000AAAAAAAA58
:1045700000000000204E0000204E0000204E0000F1
:10458000204E00006400640064006400010100012A
:1045900008080808000000000024F400A001002022
:1045A000000000000000000000000000000000000B
:1045B00000000000000000000000000000000000FB
:1045C00000000000000000000000000000000000EB
:1045D00000000000000000000000000000000000DB
:1045E00000000000000000000000000000000000CB
:1045F00000000000000000000000000000000000BB
:104600004300000000000000000000000000000067
:10461000000000000000000000000000000000009A
:104620004300000000000000000000000000000047
:10463000000000000000000000000000000000007A
:104640004300000000000000000000000000000027
:10465000000000000000000000000000000000005A
:104660004300000000000000000000000000000007
:10467000000000000000000000000000000000003A
:1046800043000000000000000000000000000000E7
:10469000000000000000000000000000000000001A
:1046A00043000000000000000000000000000000C7
:1046B00000000000000000000000000000000000FA
:1046C00043000000000000000000000000000000A7
:1046D00000000000000000000000000000000000DA
:1046E00017420008F341000800000000EE420008F5
:1046F000EC420008BF420008BF420008BF42000869
:10470000BF420008BF420008BF420008BF42000885
:10471000BF420008BF420008FFFFFFFFFFFFFFFF8F
:10472000FFFFFFFFFFFF0000010041534349490025
:104730000000000000000000000000000000000079
:104740000000000000000000000041534349490000
:104750000000000000000000000000000000000059
:0C4760000000000000000000000000004D
:0400000508003FFDB3
:00000001FF
