:020000040800F2
:10000000008001200D3B0008593A00085B3A0008C7
:100010005D3A00085F3A0008613A000800000000FD
:10002000000000000000000000000000412800085F
:10003000633A000800000000D128000835290008B4
:100040005D3B00085D3B00085D3B00085D3B000830
:100050005D3B00085D3B00085D3B0008653A000819
:100060005D3B00085D3B00085D3B00085D3B000810
:100070005D3B00085D3B00085D3B00085D3B000800
:100080005D3B00085D3B00085D3B00080000000090
:100090000000000000000000000000005D3B0008C0
:1000A0005D3B00085D3B00085D3B00085D3B0008D0
:1000B0005D3B00085D3B00086D3A00085D3B0008B1
:1000C0005D3B00085D3B00085D3B00085D3B0008B0
:1000D0005D3B00085D3B0008793A00080000000025
:1000E000853A00085D3B00085D3B00080000000009
:1000F0000000000000000000000000005D3B000860
:10010000000000005D3B00085D3B00085D3B00080F
:1001100000000000000000000000000000000000DF
:100120005D3B00085D3B00085D3B00085D3B00084F
:100130005D3B00080000000000000000000000001F
:100140000000000000000000000000005D3B00080F
:100150005D3B00085D3B00085D3B00085D3B00081F
:100160005D3B00085D3B000800000000000000004F
:10017000000000000000000000000000000000007F
:10018000000000005D3B00080000000000000000CF
:040190005D3B0008CB
:1001A00010B5054C237833B9044B13B10448AFF3B1
:1001B00000800123237010BD6C03002000000000AC
:1001C000303D000808B5034B1BB103490348AFF3AA
:1001D000008008BD0000000070030020303D0008D2
:1001E00053B94AB9002908BF00281CBF4FF0FF319E
:1001F0004FF0FF3000F07AB9ADF1080C6DE904CE94
:1002000000F006F8DDF804E0DDE9022304B07047F1
:100210002DE9F0478C460D460446089E002B51D12F
:100220008A4217466DD9B2FA82FEBEF1000F0BD09A
:10023000CEF1200C01FA0EF520FA0CFC02FA0EF7B2
:100240004CEA050C00FA0EF44FEA174A250CBCFBE9
:10025000FAF81FFA87F90AFB18CC45EA0C4508FBA7
:1002600009F3AB420AD9ED1908F1FF3280F023817E
:10027000AB4240F22081A8F102083D44ED1AA4B23D
:10028000B5FBFAF00AFB105544EA054400FB09F9F6
:10029000A14509D9E41900F1FF3380F00A81A14595
:1002A00040F2078102383C44A4EB090440EA0840CC
:1002B0000021002E61D024FA0EF400233460736014
:1002C000BDE8F0878B4207D9002E54D0002186E884
:1002D00021000846BDE8F087B3FA83F1002940F019
:1002E0008E80AB4202D3824200F2FA80841A65EB20
:1002F00003050120AC46002E3FD086E81010BDE873
:10030000F08712B90127B7FBF2F7B7FA87FEBEF103
:10031000000F34D1EB1B3A0C1FFA87FC0121B3FB11
:10032000F2F8250C02FB183345EA03450CFB08F3F1
:10033000AB4207D9ED1908F1FF3002D2AB4200F20F
:10034000D1808046ED1AA3B2B5FBF2F002FB105546
:1003500043EA05440CFB00FCA44507D9E41900F16D
:10036000FF3302D2A44500F2B8801846A4EB0C0477
:1003700040EA08409DE731463046BDE8F087CEF1BF
:10038000200405FA0EF307FA0EF720FA04F83A0CE7
:1003900025FA04F448EA0308B4FBF2F14FEA1845E1
:1003A00002FB11441FFA87FC45EA044501FB0CF3EC
:1003B000AB4200FA0EF409D9ED1901F1FF3080F0DB
:1003C0008A80AB4240F2878002393D44EB1A1FFA23
:1003D00088F5B3FBF2F002FB103345EA034500FB5E
:1003E0000CF3AB4207D9ED1900F1FF386FD2AB42E5
:1003F0006DD902383D44EB1A40EA01418FE7C1F163
:10040000200722FA07F88B4005FA01F448EA0303B3
:1004100020FA07FE4FEA134CFD404EEA040EB5FBEE
:10042000FCF94FEA1E440CFB19551FFA83F844EA05
:10043000054509FB08F4AC4202FA01F200FA01FAA0
:1004400008D9ED1809F1FF3043D2AC4241D9A9F1E6
:1004500002091D442D1B1FFA8EFEB5FBFCF00CFBA0
:1004600010554EEA054400FB08F8A04507D9E418EA
:1004700000F1FF3529D2A04527D902381C4440EAB3
:100480000940A4EB0804A0FB02894C45C6464D4632
:1004900015D312D056B1BAEB0E0364EB050404FA7F
:1004A00007F7CB401F43CC40376074600021BDE8A4
:1004B000F0871846F8E69046E0E6C245EAD2B8EB87
:1004C000020E69EB03050138E4E72846D7E740460A
:1004D00091E78146BEE7014678E702383C4445E7AC
:1004E000084608E7A8F102083D442BE7704700BF23
:1004F000014B1860704700BF64430020014B186037
:10050000704700BF68430020024B03EBC000406807
:10051000704700BF3C43002000207047014B188803
:10052000704700BF8803002001288CBF00200120F5
:1005300070470000024B1B6803B11847FEE700BF7D
:100540006443002008B50A4B0A491A788A5C824243
:1005500005D248F20100FFF7EDFF002008BD1A1890
:1005600092F82020082AF8D003EB4003988A08BDAF
:100570003C430020643D000808B5084B08491A7840
:100580008A5C824205D248F20100FFF7D3FF0820BF
:1005900008BD034493F8200008BD00BF3C43002081
:1005A000643D000808B5084B08491A788A5C824205
:1005B00005D248F20100FFF7BDFF002008BD03EBA4
:1005C0004003988A08BD00BF3C430020643D0008FA
:1005D00008B500F0ABFB80B208BD000010B50020EC
:1005E00000F0A4FB0C4C94F82430C0B2834218BF36
:1005F00084F82400012000F099FB94F82530C0B263
:100600008342064B18BF84F825001B6813B1BDE870
:100610001040184710BD00BF3C4300206843002035
:1006200010B52B4C2070002000F0ECFB012000F0F6
:10063000E9FB022000F0E6FB032000F0E3FB237857
:100640000C2B44D8DFE803F00707070715151A1A23
:1006500025252D2D3800002000F0F8FB012000F0AA
:10066000F5FB022000F0F2FB0320BDE8104000F093
:10067000EDBB012000F0C6FB0020F0E7032000F0F6
:10068000C1FB002000F0E2FB012000F0DFFB0220B4
:10069000EBE7012000F0B6FB032000F0B3FB0020E5
:1006A000F3E7022000F0AEFB032000F0ABFB0020DC
:1006B00000F0CCFB0120D8E7012000F0A3FB0220D2
:1006C00000F0A0FB032000F09DFB0020CDE710BD53
:1006D0003C43002070B50C4C064600F0CBFAA31941
:1006E000002583F824502378082B0BD92EB901203C
:1006F00000F0C0FA84F8256070BD284600F0BAFA10
:1007000084F8245070BD00BF3C43002070B50F4DED
:100710002B18012483F824402B78082B064610D987
:10072000002100F0CFFA21462EB9204600F0CAFA87
:1007300085F8254070BD002000F0C4FA85F82440FB
:1007400070BD2146BDE8704000F0BCBA3C430020BB
:1007500000487047000000200B4B1A78082A08D880
:100760000123934040F27312134204D113F08C031F
:1007700005D100207047003018BF012070470128C4
:1007800094BF0020012070473C430020134B1B788E
:100790000A2B1FD8DFE803F0060B1216060B061211
:1007A000061E1B00012894BF00200120704703286B
:1007B00012D0022814BF00200120704701280BD856
:1007C0000128F7E7032808D00228F9D1704700F084
:1007D000FD00F5E700207047022070473C430020F1
:1007E000214B1A780B2A3DD8DFE802F0060E151AC5
:1007F0002124272B3032380718B9187F10F1FF3029
:100800002DE05B7F012B02E00028F6D0012814BF09
:1008100003200220704730B3012824D09B7FF1E7EA
:1008200008B301281FD0022818BF032070470028F2
:10083000E7D170470028E9D170470028DDD00220B9
:10084000704780B1012818BF022070470028FAE7DE
:100850001B7F012B14BF022000207047003018BFFF
:1008600001207047002070473C43002008B5174B1B
:100870001A780B2A1DD8DFE802F0061A0C1C111C8E
:100880001A1C1C221C0758B9187F431E5842584195
:1008900008BD02280DD19B7F012B05E0012808D15E
:1008A0005B7F012B18BF022008BF032008BD002872
:1008B000EAD048F20200FFF73DFEFF2008BD1B7F93
:1008C000012B0CBF0220002008BD00BF3C430020CC
:1008D0000D4B1B780B2B14D8DFE803F006080C1324
:1008E000111308131306130601207047B0FA80F0A5
:1008F00040097047022814BF0020012070470128DA
:10090000F9E70020704700BF3C43002070B5134C4E
:10091000134A2378D35C8342054605D248F201008E
:10092000BDE87040FFF706BE231893F82030082B6F
:1009300012D0FFF755FF06462846FFF7C9FF20B142
:100940002846FFF793FF00F007FB30462C4400F0E9
:1009500003FB082384F8203070BD00BF3C43002017
:10096000643D00081C4938B50D781C4B5B5D834223
:10097000044605D248F20100BDE83840FFF7DABD71
:10098000FFF7EAFE0B1893F8243093B1013D092DCF
:100990001FD8DFE805F00513171E051E131E1E15D0
:1009A000BCB10B6A0E4A23F07F4323F0FF0393424E
:1009B0000FD12046BDE83840FFF7A8BF012C08D86A
:1009C0000A8C02E0012CFBD94A8C40F203339A4294
:1009D000EEE7FFF77FFEECE73C430020643D0008B4
:1009E00000030300F8B5254C254A2378D35C8342E5
:1009F00005460E4605D248F20100BDE8F840FFF773
:100A000099BD231893F82020082A04D01B7F8B421D
:100A100033D0FFF77BFF6319032228461E7783F844
:100A20002020FFF799FE07462846FFF7D9FE064625
:100A30003846FFF76BFE2846FFF74AFF05F108032B
:100A4000B10004EB430398B11A792144C2F1640266
:100A5000D2B24968304600F03BFA2846FFF706FF5D
:100A600004EB800464226168BDE8F84000F030BA0D
:100A70000C441A7961683046F6E7F8BD3C43002023
:100A8000643D0008F8B5154C154A2378D35C8342C1
:100A900006460D4605D248F20100FFF74BFD002047
:100AA000F8BD04EB40039982231893F82030082BFB
:100AB0000FD0FFF795FE07463046FFF709FFBB0052
:100AC00048B1C5F164021C44D2B26168384600F0F6
:100AD000FFF90120F8BD1C44EAB2F6E73C430020D0
:100AE000643D00082DE9F0471E4FDFF87C808F42FF
:100AF0004FEA400028BF0F465FFA80F9002609EB55
:100B00000605EDB208EB850A2846CAF80470FFF71F
:100B10003DFE08EB0003044693F82030082B16D066
:100B2000FFF7D6FEC0B12046FFF7A0FEA84209D0CD
:100B300008EB4404DAF80410227DC2F16402D2B258
:100B4000284602E0DAF80410642200F0C1F9013608
:100B5000022ED4D1BDE8F08708EB44043946227D4B
:100B6000EEE700BFA08601003C43002070B50D4CAD
:100B700028220021204603F01BF844F6206363601E
:100B8000A360E360236104F11B02002364260120BB
:100B90000821E5180233AE8202F8010F082B11710B
:100BA000F7D170BD3C43002030B5064C034600F140
:100BB000280518685968224603C20833AB42144618
:100BC000F7D130BD3C4300200A4A138810B50133E9
:100BD0000446138000F0BCF83CB9FFF7C7FF064B92
:100BE000BDE810401878FFF71BBD2046FFF7DCFF7B
:100BF000F5E700BF880300203C43002010B586B015
:100C0000194B002400941A6B42F004021A631B6B08
:100C100003F004030093009B71B94FF40053019358
:100C2000022303930493114B029153F8200001A96E
:100C300000F05AFB06B010BD0129FBD14FF4005360
:100C400001930B4B0293094B039453F8200001A925
:100C500000F04AFB22460F21282000F0E5FA282068
:100C600000F016FBE6E700BF0038024064010020F8
:100C70000000211070B5104B104C002886B014BF36
:100C80001C464FF480654FF0010318BF0225002673
:100C900001A92046019502930396049300F024FBDA
:100CA00072B632462946204600F070FC044B5D6166
:100CB00062B606B070BD00BF0008024000000240EE
:100CC000003C0140F0B5154B154C002816BF1C46E2
:100CD0004FF4806502250F4687B04FF00102294688
:100CE00020460CBF2826072600F050FC17B1142020
:100CF00000F074FA0B4B029301A9012320460393E1
:100D00000493019500F0F0FA074B30465D6100F066
:100D1000CBFA304600F0BCFA07B0F0BD0008024044
:100D20000000024000002110003C014008B5064BC5
:100D300000280CBF4FF480610221044818BF1846F8
:100D400000F01EFC08BD00BF000802400000024089
:100D5000F0B589B00024284B00941A6B274E42F05E
:100D600004021A631A6B02F004020092009A0194C2
:100D70001A6B42F001021A631A6B02F0010201922F
:100D8000019A02941A6B42F002021A631B6B0594DB
:100D900003F00203012502934FF4806703A9304654
:100DA000029B04950695039700F09EFA2246394669
:100DB000304600F0EBFB22460421282000F034FAF4
:100DC000282000F065FA049506950D4D059402263D
:100DD00003A92846039600F087FA224631462846A2
:100DE00000F0D4FB22460421072000F01DFA072062
:100DF00000F04EFA09B0F0BD003802400000024099
:100E00000008024002280ED0032810D001280A4B07
:100E100005D00A4803600123037700F0D6BE0848D6
:100E200003600223F8E707484FF08043F2E70648E3
:100E30004FF08043F4E700BF000400402C44002042
:100E40006C430020AC430020EC43002070B5022826
:100E50008AB02AD003282CD00128184B1FD0184C58
:100E6000236001232377002600253F236360A560CC
:100E7000E5602561204600F0D3FF6023324603A9D8
:100E80002046039304950595079501F00FF801A9F5
:100E900020460195029501F0C3F80AB070BD094CD7
:100EA0002360022323770426DEE7074C4FF08043BC
:100EB000D6E7064C4FF08043F2E700BF0004004045
:100EC0002C4400206C430020AC430020EC43002065
:100ED00070B505460C46164600F0ECFC022D23D0FA
:100EE000032D25D0012D174A1AD0174B1A60002167
:100EF000A401B0FBF4F01C680138E062D86046B190
:100F0000642E324628BF642250436422B0FBF2F0C4
:100F1000461C89B966631846BDE8704001F036B8D2
:100F20000A4B1A600421E3E7094B4FF08042DDE7EA
:100F3000084B4FF08042F4E709B1A663EBE7266463
:100F4000E9E700BF000400402C4400206C4300206F
:100F5000AC430020EC430020032810D8DFE800F069
:100F60000206090C0648002101F02CB804210548AE
:100F7000FAE700210448F7E704210448F4E7704742
:100F80002C4400206C430020AC430020EC430020A4
:100F900000207047002070470020704700207047F5
:100FA000002070470020704700207047034B1B68EB
:100FB0001BB1D3F8F03003B11847FEE78C030020D3
:100FC000044B1B6813B19B6803B1184740F602003D
:100FD000FFF7ECBF8C030020044B1B6813B1DB68E8
:100FE00003B1184740F60300FFF7E0BF8C03002071
:100FF000054B1B681BB11B680BB1084618474FF423
:101000000060FFF7D3BF00BF8C030020044B1B68B8
:1010100013B15B6903B1184740F60500FFF7C6BF7F
:101020008C030020074B1B6810B523B15B6A13B11A
:10103000BDE81040184740F60900FFF7B7FF082049
:1010400010BD00BF8C030020044B1B6813B15B6D07
:1010500003B1184740F61500FFF7A8BF8C03002026
:10106000074B1B6810B523B19B6E13B1BDE8104050
:10107000184740F61A00FFF799FF002010BD00BF87
:101080008C030020074B1B6810B52BB1D3F88830B8
:1010900013B1BDE81040184740F62200FFF786FF65
:1010A000002010BD8C030020054B1B681BB1D3F83A
:1010B000043103B1184740F64100FFF777BF00BF86
:1010C0008C030020054B1B681BB1D3F80C3103B116
:1010D000184740F64300FFF769BF00BF8C030020AC
:1010E000264B70B5188041F64A1398420D46244CA1
:1010F0000CD1FFF74DFF20602368E3B3D3F84431F0
:10110000CBB3C5B32846BDE870401847012802D1CB
:10111000FFF744FFEFE741F63E03984202D1FFF7A5
:1011200017FBE8E7B0F5C25F02D1FFF739FFE2E74E
:10113000DC2802D1FFF736FFDDE741F6461398427F
:1011400003D041F64813984202D1FFF723FFD2E7BC
:1011500020F0020341F65012934202D1FFF71CFF28
:10116000C9E7F02801D0FA2802D1FFF71DFFC2E736
:1011700000232360C0E7002070BD00BF8A03002069
:101180008C03002008B50B4B1A6842F400721A60F9
:101190001A6842F480621A601A6842F480721A6017
:1011A000032000F02FF8002002F018FC02F00CFBE6
:1011B000002008BD003C0240034A044B11681B7824
:1011C0000B441360704700BF6C440020680100208E
:1011D000014B1868704700BF6C44002038B50446C6
:1011E000FFF7F6FF631C1CBF054B1B78054618BFB5
:1011F000E418FFF7EDFF401B8442FAD838BD00BF6A
:1012000068010020074AD36823F4E0631B041B0C29
:1012100043F0BF63000243F4003300F4E060034393
:10122000D360704700ED00E0174B30B5DC68C4F3C5
:101230000224C4F10703251D042B28BF0423062D17
:101240004FF0010505FA03F303F1FF338CBF033CB4
:1012500000241940A14005FA04F4013C2240002872
:1012600042EA01024FEA0212AFBF00F1604000F013
:101270000F00064BD2B2A5BF00F56140D2B21A549E
:1012800080F8002330BD00BF00ED00E014ED00E069
:101290004209012300F01F0003FA00F0014B43F85C
:1012A0002200704700E100E04309012200F01F0026
:1012B00002FA00F06033024A42F82300704700BF90
:1012C00000E100E090F83530022B03D08023436525
:1012D000012070470268052380F83530136823F039
:1012E00001031360002070472DE9F04F85B00B68B3
:1012F000DFF89C81644A01934FF001090023019CAF
:1013000009FA03F707EA0406B74240F0AD804C68DB
:1013100024F0100ABAF1020F16D14FEAD30C00EBF9
:101320008C0C03F0070BDCF820504FEA8B0B4FF0CE
:101330000F0E0EFA0BFE25EA0E0E0D6905FA0BF5DF
:1013400045EA0E05CCF820504FEA430C0325D0F8AF
:1013500000B005FA0CF5ED4304F0030E0BEA050BA3
:101360000EFA0CFE0AF1FF3A4EEA0B0EBAF1010F2B
:101370000095C0F800E015D8D0F808E005EA0E0E98
:10138000CD6805FA0CFA4AEA0E0EC0F808E0D0F86B
:1013900004E02EEA0707C4F3001E0EFA03FE4EEA2D
:1013A00007074760C768009D3D408F6807FA0CF744
:1013B0003D43C560E50057D54FF0000BCDF80CB0AC
:1013C000D8F84470314D47F48047C8F84470D8F8D5
:1013D000447007F480470397039F23F0030707F146
:1013E000804707F59C3703F0030CD7F808A04FEAB5
:1013F0008C0C4FF00F0E0EFA0CFEA8422AEA0E0ECD
:1014000039D005F58065A84237D005F58065A8423A
:1014100035D005F58065A84233D005F58065A84232
:1014200014BF0725042505FA0CF545EA0E05BD6035
:101430001568F74314F4803F0CBF3D4035431560F9
:10144000556814F4003F0CBF3D4035435560956826
:1014500014F4801F0CBF3D4035439560D568A4024D
:1014600054BF3D403543D5600133102B7FF447AF67
:1014700005B0BDE8F08F5D46D5E70125D3E702252D
:10148000D1E70325CFE700BF003C01400000024048
:10149000003802402DE9F04F374C00234FF0010A8D
:1014A0004FF00F084FF0030B0AFA03FE0EEA010299
:1014B000964553D123F0030505F1804505F59C358C
:1014C00003F00307AE68BF0008FA07F906EA090C43
:1014D0002A4EB04247D006F58066B04245D006F5A8
:1014E0008066B04243D006F58066B04241D006F532
:1014F0008066B0420CBF04260726BE40B44510D11A
:10150000AE6826EA0906AE602568D243154025601C
:10151000656815406560A5681540A560E5682A40C6
:10152000E2605A0005680BFA02F2D243DE08154069
:1015300000EB8606056003F00705376AAD0008FA80
:1015400005F527EA0505356285681540856045681B
:1015500025EA0E054560C5682A40C2600133102B9C
:10156000A2D1BDE8F08F0026C7E70126C5E7022615
:10157000C3E70326C1E700BF003C01400000024072
:101580000369194214BF0120002070470AB181612C
:1015900070470904FBE7000008B5044B5969014294
:1015A00002D0586102F008FA08BD00BF003C0140BB
:1015B0002DE9F341044618B9012002B0BDE8F081DD
:1015C0000368DD0710D42368980758D423681A07E6
:1015D00000F19A8023685B0700F1B880A269002AB5
:1015E00040F019810020E8E7A64B9A6802F00C024F
:1015F000042A07D09A6802F00C02082A0AD15B6814
:10160000590207D59F4B1B689A03DCD56368002BF2
:10161000D9D1D1E763689B4DB3F5803F11D12B68D9
:1016200043F480332B60FFF7D3FD964D06462B68BD
:101630009B03C8D4FFF7CCFD801B6428F7D9032097
:10164000BBE7B3F5A02F04D12B6843F480232B60B4
:10165000E5E72A6822F480322A602A6822F4802290
:101660002A60002BDFD1FFF7B3FD06462B689F03EE
:10167000A9D5FFF7ADFD801B6428F7D9DFE7814BC3
:101680009A6812F00C0F07D09A6802F00C02082A30
:1016900011D15B685E020ED47A4B1A68950702D5A9
:1016A000E268012A88D11A68216922F0F80242EA28
:1016B000C1021A608AE7E268734BB2B101221A6074
:1016C000FFF786FD6F4D06462B68980707D52B68F8
:1016D000226923F0F80343EAC2032B6076E7FFF7A1
:1016E00077FD801B0228EFD9A9E71A60FFF770FD8C
:1016F000644D06462B6899077FF568AFFFF768FDD4
:10170000801B0228F6D99AE76269604B7AB1012200
:101710001A60FFF75DFD5B4D06466B6F9F073FF557
:1017200059AFFFF755FD801B0228F6D987E71A60ED
:10173000FFF74EFD534D06466B6F98077FF54AAF96
:10174000FFF746FD801B0228F6D978E74D4B1A6C4F
:1017500012F0805228D101921A6C42F080521A6421
:101760001B6C03F080530193019B0126484D2B68AD
:10177000D9051BD5A368434D012B27D12B6F43F00F
:1017800001032B67FFF724FD3E4D074641F28838E1
:101790002B6F9B0739D5002E3FF420AF394A136CCD
:1017A00023F08053136419E70026DFE72B6843F426
:1017B00080732B60FFF70CFD07462B68DA05D9D440
:1017C000FFF706FDC01B0228F7D938E7052B04D127
:1017D0002B6F43F004032B67D0E72A6F22F001023E
:1017E0002A672A6F22F004022A67002BCAD1FFF76A
:1017F000EFFC41F2883807462B6F9807CBD5FFF7EF
:10180000E7FCC01B4045F7D919E7FFF7E1FCC01B17
:101810004045BDD913E71B4DAB6803F00C03082B03
:101820003FF4CAAE1B4E0023022A336034D1FFF7C7
:10183000CFFC07462B6899011ED4226AE369134343
:10184000626A43EA8213E26A43EA0263A26A0D4CC7
:101850005208013A43EA02436B6001233360FFF709
:10186000B7FC054623689A013FF5BCAEFFF7B0FC14
:10187000401B0228F6D9E2E6FFF7AAFCC01B0228AB
:10188000D8D9DCE60038024000004742800E4742CB
:101890000070004060004742FFF79AFC04462B6846
:1018A0009B017FF59FAEFFF793FC001B0228F6D942
:1018B000C5E600BF134908B58B6803F00C03042B81
:1018C00003D0082B03D0104808BD104808BD4A6853
:1018D0004B68496813F4800314BF0C480A48C1F3ED
:1018E000881118BF002302F03F02A1FB0001FEF7A0
:1018F00077FC044B5B68C3F3014301335B00B0FB2F
:10190000F3F008BD003802400024F40000127A0011
:101910002DE9F0410D46044610B90120BDE8F081E3
:10192000444B1A6802F00F028A4228D321688F07BD
:101930002DD4C80740D43F4B1A6802F00F029542DD
:1019400066D3226851076CD4130707D53A4A216938
:10195000936823F4604343EAC1039360FFF7AAFF4F
:10196000354B364A9B68C3F30313D35CD840344BE2
:101970001860002002F032F80020BDE8F081CAB201
:101980001A701B6803F00F039942C6D1CEE72A4BA9
:1019900011F0040F1EBF9A6842F4E0529A600E07DD
:1019A00042BF9A6842F460429A609A68A06822F046
:1019B000F00202439A60BCE762681F4B012A1DD106
:1019C0001B6813F4003FA8D01B4EB36823F0030339
:1019D0001343B360FFF7FCFB41F288380746B36856
:1019E000626803F00C03B3EB820FA4D0FFF7F0FBA7
:1019F000C01B4045F3D90320BDE8F081911E0129A9
:101A00001B6802D813F0007FDDE713F0020FDAE75E
:101A1000EAB21A701B6803F00F039D427FF47DAF9A
:101A20008FE70549E0688B6823F4E05303438B603C
:101A30008AE700BF003C024000380240A43D000895
:101A400098010020044B054A9B68C3F38223D35CB2
:101A5000034A1068D840704700380240B43D00087F
:101A600098010020044B054A9B68C3F34233D35CC2
:101A7000034A1068D840704700380240B43D00085F
:101A8000980100200F2303600B4B9A6802F00302B9
:101A900042609A6802F0F00282609A6802F4E052B2
:101AA000C2609B68DB0803F4E0530361034B1B68CF
:101AB00003F00F030B60704700380240003C024007
:101AC000036A23F001030362036A70B54468826904
:101AD0000D6822F073022A438D6823F002032B4322
:101AE0000A4DA8420BD1CD688E6923F008032B4321
:101AF0004D6924F44074354323F004032C434460BF
:101B000082614A684263036270BD00BF0000014009
:101B1000036A23F480730362036A70B54468C26980
:101B20000D6822F073022A438D6823F4007343EAA0
:101B300005230B4DA8420DD1CD688E6923F40063B7
:101B400043EA05234D6924F44054354323F480636C
:101B500044EA05144460C2614A68C263036270BD0E
:101B600000000140036A23F480530362036A30B526
:101B70004468C2690D6822F4E64242EA05228D6893
:101B800023F4005343EA0533064DA84202BF4D69D2
:101B900024F4804444EA85144460C2614A680264C3
:101BA000036230BD0000014070470368DA6842F00C
:101BB0000102DA609A6802F00702062A1EBF1A685C
:101BC00042F001021A6000207047022310B580F82D
:101BD0003D300368196A41F211121142044608D1DE
:101BE000196A40F24442114202BF1A6822F001020F
:101BF0001A60204601F0B6FE002084F83D0084F80B
:101C00003C0010BD704770477047704703681A6901
:101C1000910710B504460ED5DA6892070BD56FF020
:101C200002021A619B6901229B07027777D0FFF7B6
:101C3000EAFF0023237723681A69500710D5DA6872
:101C400051070DD56FF004021A619B69022213F44B
:101C5000407F2277204668D0FFF7D5FF0023237707
:101C600023681A6912070FD5DA6810070CD56FF0D0
:101C700008021A61DB6904229907227720465AD0AC
:101C8000FFF7C1FF0023237723681A69D20610D516
:101C9000DA68D0060DD56FF010021A61DB690822F0
:101CA00013F4407F227720464BD0FFF7ACFF002390
:101CB000237723681A69D10708D5DA68D20705D5D2
:101CC0006FF001021A61204601F05EFD23681A6977
:101CD000100608D5DA68110605D56FF080021A6182
:101CE000204600F0BCF923681A69520608D5DA6864
:101CF000500605D56FF040021A612046FFF785FFB8
:101D000023681A69910622D5DA6892061FD56FF00A
:101D1000200220461A61BDE8104000F09FB9FFF78D
:101D200071FF2046FFF770FF83E7FFF76BFF204648
:101D3000FFF76AFF92E7FFF765FF2046FFF764FFB2
:101D4000A0E7FFF75FFF2046FFF75EFFAFE710BD9C
:101D5000244A036890420ED0B0F1804F0BD0A2F518
:101D60007C42904207D002F58062904203D002F597
:101D70008062904215D14A6823F070031343194AD8
:101D8000904219D0B0F1804F16D0A2F57C4290421B
:101D900012D002F5806290420ED002F5806290422D
:101DA0000AD0114A904207D002F58062904203D0D7
:101DB00002F58062904203D1CA6823F44073134352
:101DC0004A6923F08003134303608B68C3620B6886
:101DD0008362044B984204BF0B6903630123436190
:101DE000704700BF000001400040014010B50446AC
:101DF000A0B190F83D3003F0FF021BB980F83C2001
:101E0000FFF7D2FE022384F83D302068211DFFF742
:101E10009FFF012384F83D30002010BD012010BD3C
:101E200010B50446A0B190F83D3003F0FF021BB995
:101E300080F83C2001F026FD022384F83D30206824
:101E4000211DFFF785FF012384F83D30002010BDE0
:101E5000012010BD036A23F010030362036A70B50A
:101E6000446882690D6822F4E64242EA05228D68E0
:101E700023F0200343EA05130B4DA8420DD1CD6892
:101E80008E6923F0800343EA05134D6924F440640E
:101E9000354323F0400344EA8504446082614A6884
:101EA0008263036270BD00BF0000014038B590F846
:101EB0003C30012B04464FF0020025D0012384F86A
:101EC0003C3084F83D000C2A18D8DFE802F00717F0
:101ED00017171E1717172F17171740002068FFF73F
:101EE000EFFD236809699A6942F008029A619A69CC
:101EF00022F004029A619A690A439A610123002040
:101F000084F83D3084F83C0038BD2068FFF7A2FF1C
:101F1000236809699A6942F400629A619A6922F415
:101F200080629A619A6942EA0122E6E72068FFF737
:101F3000EFFD23680969DA6942F00802DA61DA69BB
:101F400022F00402DA61DA690A43DA61D6E720682E
:101F5000FFF708FE23680969DA6942F40062DA6172
:101F6000DA6922F48062DA61DA6942EA0122ECE796
:101F7000036A01F01F0110B501248C4023EA040319
:101F80000362036A8A401A43026210BD10B5044618
:101F900001220068FFF7ECFF2368094A934202BF61
:101FA0005A6C42F400425A649A6802F00702062A08
:101FB0001EBF1A6842F001021A60002010BD00BF67
:101FC0000000014010B5044600220068FFF7D0FF72
:101FD0002368124A93420DD1196A41F2111211423B
:101FE00008D1196A40F24442114202BF5A6C22F4ED
:101FF00000425A64196A41F21112114208D1196A59
:1020000040F24442114202BF1A6822F001021A60F3
:10201000012384F83D30002010BD00BF00000140C6
:1020200090F83C30012B30B54FF0020314D0046817
:1020300080F83D306268A3680D68496822F070023C
:1020400023F080030B432A436260A360012380F8DE
:102050003D30002380F83C30184630BD7047704753
:102060000368DA6822F49072DA605A6922F0010299
:102070005A61202380F83A30704700002DE9F0477C
:102080000668C2683369C16923F44053134333615E
:10209000044683680069F2680343606922F41642CB
:1020A000034322F00C020B431343F3607369A269EC
:1020B00023F440731343B1F5004F73617A4B7CD125
:1020C0009E4203D003F580639E4244D1FFF7CAFCD1
:1020D000192505FB00F360684FF064094000B3FB6D
:1020E000F0F3B3FBF9F34FEA0318FFF7BBFC6368A7
:1020F00068435B00B0FBF3F7FFF7B4FC6368684329
:102100005B00B0FBF3F3B3FBF9F309FB1373DB00E4
:102110003233B3FBF9F35B0003F4F877FFF7A2FC6B
:10212000626868435200B0FBF2FAFFF79BFC6368F9
:1021300068435B00B0FBF3F3B3FBF9F309FB13A3B4
:10214000DB003233B3FBF9F303F0070343443B44B2
:10215000B360BDE8F087FFF775FC192505FB00F3B8
:1021600060684FF064094000B3FBF0F3B3FBF9F390
:102170004FEA0318FFF766FC636868435B00B0FB37
:10218000F3F7FFF75FFC636868435B00B0FBF3F3B2
:10219000B3FBF9F309FB1373DB003233B3FBF9F341
:1021A0005B0003F4F877FFF74DFC62686843520068
:1021B000B0FBF2FAFFF746FCB9E79E4202D03B4B78
:1021C0009E4240D1FFF74EFC676819254FF0640925
:1021D00005FB00F3BF00B3FBF7F3B3FBF9F31F01FB
:1021E000FFF740FC636868439B00B0FBF3F8FFF720
:1021F00039FC636868439B00B0FBF3F3B3FBF9F36E
:1022000009FB13831B013233B3FBF9F303F0F0082E
:10221000FFF728FC626868439200B0FBF2FAFFF710
:1022200021FC636868439B00B0FBF3F3B3FBF9F355
:1022300009FB13A31B013233B3FBF9F303F00F03C4
:1022400043EA080383E7FFF7FDFB676819254FF0B2
:10225000640905FB00F3BF00B3FBF7F3B3FBF9F32D
:102260001F01FFF7EFFB636868439B00B0FBF3F8C7
:10227000FFF7E8FB636868439B00B0FBF3F3B3FB35
:10228000F9F309FB13831B013233B3FBF9F303F0BA
:10229000F008FFF7D7FB626868439200B0FBF2FAE0
:1022A000FFF7D0FBBDE700BF001001400014014064
:1022B000F8B504460E4617461D4621680B6836EAF7
:1022C000030301D10020F8BD6B1CF7D095B923683A
:1022D000DA6822F4D072DA605A6922F001025A6197
:1022E000202384F8393084F83A30002384F83830D9
:1022F0000320F8BDFEF76CFFC01B8542DDD2E6E788
:1023000010B5044640B390F8393003F0FF021BB912
:1023100080F8382001F07AFA2268242384F83930D2
:10232000D36823F40053D3602046FFF7A7FE236849
:102330001A6922F490421A615A6922F02A025A61FB
:10234000DA6842F40052DA6000202023E06384F867
:10235000393084F83A3010BD012010BD2DE9F0412C
:102360001F4690F83930202B04460D4690464FD139
:1023700000294AD0002A48D090F83830012B47D0A5
:10238000012380F838300023C363212380F83930DB
:10239000FEF71EFFA4F824800646A4F82680E38CEE
:1023A0009BB26BB93B46324640212046FFF780FF87
:1023B000B0B9202384F8393084F83800BDE8F081C2
:1023C000E38C013B9BB2E384A368B3F5805F3246A4
:1023D0003B464FF0800120460ED1FFF769FF10B158
:1023E0000320BDE8F0812B882268C3F30803536003
:1023F000236943B90235D2E7FFF75AFF0028EFD12E
:1024000023682A785A600135C9E70120BDE8F081C8
:102410000220BDE8F0812DE9F0411F4690F83A30E6
:10242000202B04460D46904652D100294DD0002A5B
:102430004BD090F83830012B4AD0012380F8383047
:102440000023C363222380F83A30FEF7C1FEA4F8CC
:102450002C800646A4F82E80E08D80B230B920236F
:1024600084F83A3084F83800BDE8F081E38D013B10
:102470009BB2E385A368B3F5805F32463B464FF0DD
:102480002001204612D1FFF713FF10B10320BDE851
:10249000F081236822695B6822B9C3F3080325F839
:1024A000023BD9E7DBB225F8013BD5E7FFF700FF98
:1024B0000028EBD1236821695B686A1C11B92B7075
:1024C0001546C9E703F07F03F9E70120BDE8F08175
:1024D0000220BDE8F081704790F83A30222B10B509
:1024E00036D1836801690268B3F5805F836A23D1BE
:1024F0005268E9B9C2F3080223F8022B8362C48D43
:10250000013CA4B2C4858CB90368DA6822F02002C9
:10251000DA60DA6822F48072DA605A6922F0010225
:102520005A61202380F83A3001F016F9002010BDDE
:10253000D2B223F8012BE1E721B9591C526881621C
:102540001A70DCE75268591C816202F07F02F7E7DB
:10255000022010BD7047000003681A68D96870B582
:10256000160704465D6907D196065AD58D0658D5DB
:10257000BDE87040FFF7B0BF15F0010502D111F4BE
:10258000907F4ED0D30705D5CE0542BFE36B43F015
:102590000103E363500704D51DB1E36B43F002036D
:1025A000E363930704D51DB1E36B43F00403E363D6
:1025B000160704D51DB1E36B43F00803E363E36B37
:1025C000002B66D0950604D5880602D52046FFF775
:1025D00083FF23685D69E26B1107204602D415F082
:1025E00040051AD0FFF73CFD23685A69520610D502
:1025F0005A69606B22F040025A6150B1254B036565
:10260000FEF760FE002844D0606BBDE87040036DAB
:1026100018472046FFF79EFF70BDFFF79BFFE5635D
:1026200070BD160627D50D0625D594F83920212A28
:102630002FD1A268B2F5805F226A17D11188C1F349
:1026400008015960216979B902322262E28C013AAB
:1026500092B2E284EAB9DA6822F08002DA60DA68DB
:1026600042F04002DA6070BD0132EEE7511C216297
:1026700012785A60EAE750060BD54A0609D5DA689F
:1026800022F04002DA60202384F839302046FFF738
:1026900022FF70BD9926000808B5806B0023C38512
:1026A000C384FFF757FF08BD08B500F0A9FC002060
:1026B00008BD70B5054646692A694068B5F9084005
:1026C0000B4686B0296876B1AD6965B1842C14BF1C
:1026D0000334002402958DE8500000F02DFC059095
:1026E000059806B070BD842C14BF0334002405ADDA
:1026F00092B28DE8300000F056FC0128F0D00020A6
:10270000EFE708B5002808BF012000F0C1FD002058
:1027100008BD00F1080343604FF0FF32C36003615E
:1027200000238260036070470023036170474368A1
:102730004B609A688A609A68516099600368086182
:102740000133036070470A68531C30B50AD103692E
:102750005A684A6091608B60596003680861013370
:10276000036030BD00F108035C682568AA42EFD31E
:102770002346F9E74168826803698A60826851608C
:102780005968884208BF5A60002202611A68013AFB
:102790001A6018687047000082B0002301930D4B47
:1027A0001B68013308D04FF0500383F31188BFF347
:1027B0006F8FBFF34F8FFEE74FF0500383F3118805
:1027C000BFF36F8FBFF34F8F019B002BFCD002B084
:1027D000704700BF6C01002008480068006880F363
:1027E00008884FF0000080F3148862B661B6BFF32A
:1027F0004F8FBFF36F8F00DF00BF000008ED00E0D8
:10280000DFF80C00016841F47001016070470000BE
:1028100088ED00E04FF0807340F8043C074B40F82F
:102820000C3C21F001016FF0020340F8081C40F855
:10283000202C40F8243C4438704700BF99270008FA
:10284000074B19680868B0E8F04F80F30988BFF3B8
:102850006F8F4FF0000080F311887047AFF3008056
:10286000B03F00204FF0500383F31188BFF36F8F08
:10287000BFF34F8F0A4A13680133012B13600DD148
:10288000084B1B6813F0FF0F08D04FF0500383F381
:102890001188BFF36F8FBFF34F8FFEE7704700BF04
:1028A0006C01002004ED00E0084A136843B94FF0C2
:1028B000500383F31188BFF36F8FBFF34F8FFEE791
:1028C000013B13600BB983F3118870476C01002042
:1028D000EFF30980BFF36F8F154B1A681EF0100FCE
:1028E00008BF20ED108A20E9F04F10602DE90900A3
:1028F0004FF0500080F31188BFF34F8FBFF36F8FFD
:1029000000F0EAFC4FF0000080F3118809BC196860
:102910000868B0E8F04F1EF0100F08BFB0EC108A46
:1029200080F30988BFF36F8F704700BFAFF300805B
:10293000B03F002008B54FF0500383F31188BFF378
:102940006F8FBFF34F8F00F099FB18B1034B4FF01F
:1029500080521A60002383F3118808BD04ED00E063
:10296000084A0949002313600B60084B4FF47A7141
:102970001B68B3FBF1F30649013B0B6007231360AF
:10298000704700BF10E000E018E000E09801002070
:1029900014E000E0394B3A4A13B51968914208D166
:1029A0004FF0500383F31188BFF36F8FBFF34F8F46
:1029B000FEE71A68334B9A4208D14FF0500383F375
:1029C0001188BFF36F8FBFF34F8FFEE72E4B1A783E
:1029D000D2B20192FF221A701B782C4ADBB28DF81A
:1029E00003309DF8033003F050031370284B072287
:1029F0001A6000219DF80300000602F1FF340DD497
:102A000001B11A601A68032A11D04FF0500383F302
:102A10001188BFF36F8FBFF34F8FFEE79DF8032040
:102A20005200D2B28DF8032001212246E2E71202C1
:102A300002F4E0621A60019B134ADBB21370154B7B
:102A40001A6842F470021A601A6842F070421A6002
:102A5000FFF786FF104B00241C60FFF7D1FE0F4AE2
:102A6000136843F040431360FFF7B6FE00F034FCF8
:102A7000FFF792FE204602B010BD00BF00ED00E05F
:102A800071C20F4170C20F4100E400E090030020CA
:102A90009403002020ED00E06C01002034EF00E002
:102AA00010B50F4B1A68824218D35C681919884216
:102AB00001BF4168184609195960446801198A42E2
:102AC00007D1084909688A421FBF5168126809196D
:102AD00041609842026018BF186010BD1346E1E7DC
:102AE000A83F0020980300202DE9F041044600F0A3
:102AF000BDFA3E493E4D0B680BBB3E4A56071FBF11
:102B0000D01D20F0070002F570531B1A14BF0246B7
:102B10004FF470531344083B23F00703364E0B6009
:102B200000207060326058601860981A1360334B50
:102B300050601860324B18604FF000432B602F68D4
:102B4000274216D1002C41D004F1080358071CBFBE
:102B500023F00703083363B1294A1668B34290464D
:102B600007D8254A15686868834204D809688D42E9
:102B700007D100242AE02C68002CF7D02A462546ED
:102B8000F1E7296814681160C21A102A0FD9E818F1
:102B9000410708D04FF0500383F31188BFF36F8FC4
:102BA000BFF34F8FFEE742606B60FFF779FF134979
:102BB0006B680868F61A1F4386424FF00003C8F896
:102BC000006038BF0E6008346F602B6000F0E8FAD8
:102BD000630708D04FF0500383F31188BFF36F8F62
:102BE000BFF34F8FFEE72046BDE8F0819803002039
:102BF0009C3F00209C030020A83F0020A43F002011
:102C0000A03F002010B5044670B3184A50F8043CA9
:102C10001268134208D14FF0500383F31188BFF3B9
:102C20006F8FBFF34F8FFEE750F8081C41B14FF094
:102C3000500383F31188BFF36F8FBFF34F8FFEE70D
:102C400023EA020340F8043C00F010FA084A54F862
:102C5000043C1168A4F108000B441360FFF720FF47
:102C6000BDE8104000F09CBA10BD00BF9C3F0020A2
:102C7000A03F00202DE9F0410646FFF7F3FD2D4B64
:102C80002D4C1A682D4F01321A602568002D45D150
:102C900026601B68012B1CD178191435FFF739FD0C
:102CA0008C2DF9D1DFF8C080254D4046FFF731FD6E
:102CB0002846FFF72EFD2348FFF72BFD2248FFF79C
:102CC00028FD2248FFF725FD214BC3F80080214B4A
:102CD0001D60214A21491368086801331360F26AB4
:102CE00001239340034314200B6000FB0270311D4D
:102CF000FFF71DFDFFF7D8FD194B1B6863B1236873
:102D0000DA6AF36A9A4207D2164B4FF080521A6081
:102D1000BFF34F8FBFF36F8FBDE8F081104B1B687F
:102D2000002BD6D12368DA6AF36A9A4298BF2660EC
:102D3000CFE700BF48400020B03F0020BC3F00204C
:102D40007440002090400020BC400020A84000209B
:102D5000B43F0020B83F0020584000205C400020D5
:102D6000A440002004ED00E060400020064A136803
:102D70001968064B19B94FF0FF321A607047126894
:102D8000D268D2685268F8E7B43F0020884000203B
:102D90002DE9F0470A9CDDF82480266B02F1804281
:102DA000013A06EB82069A4681464B1E26F007063C
:102DB00004F134020F31587802F8010B13F8010FB7
:102DC00008B18B42F7D1089D062D28BF06250027A4
:102DD000E5626564201D84F84370A764FFF7A4FCD6
:102DE000C5F1070504F11800FFF79EFCE7642461B4
:102DF000A561646284F85070524649463046FFF738
:102E000009FD2060B8F1000F01D0C8F80040BDE80E
:102E1000F08710B590F8513004463BB9006BFFF7CE
:102E2000F1FE2046BDE81040FFF7ECBE012BF9D0C3
:102E3000022B08D04FF0500383F31188BFF36F8F3C
:102E4000BFF34F8FFEE710BD80B5DFF85C80124FF7
:102E5000124C134D236863B9124B1B68012BF8D930
:102E60004FF08053C8F80030BFF34F8FBFF36F8F20
:102E7000EEE7FFF7F7FCFB68DE68301DFFF77AFC32
:102E80002B68013B2B602368013B2360FFF70CFD9F
:102E90003046FFF7BEFFDDE7BC4000204C4000207D
:102EA00048400020BC3F002004ED00E0F8B51B4B7B
:102EB0001B4E1D680446306804300F46FFF75AFC6D
:102EC000334640B93168174EC96A326801208840DC
:102ED00022EA00023260621C07D137B11968124839
:102EE0000431BDE8F840FFF722BC2C441A68A54223
:102EF000546007D90D4A10681968BDE8F8400431DC
:102F0000FFF721BC0A4A106819680431FFF71BFC5F
:102F1000084B1A68944238BF1C60F8BDD0400020AE
:102F2000B03F00205C400020A8400020B83F0020B7
:102F3000B43F00208840002070B586B00B9D0C9CEB
:102F400045B94FF0500383F31188BFF36F8FBFF380
:102F50004F8FFEE744B94FF0500383F31188BFF35E
:102F60006F8FBFF34F8FFEE754260496049E542EB6
:102F700008D04FF0500383F31188BFF36F8FBFF376
:102F80004F8FFEE72563022584F8515005AD01956A
:102F90000A9D02940095FFF7FBFE2046FFF76AFEAC
:102FA000059806B070BD2DE9F043074685B0900046
:102FB000884616469946FFF797FD0546E8B1542026
:102FC000FFF792FD0446A8B1002380F851300D9B15
:102FD000056301930C9B0290009332464B46414699
:102FE0003846FFF7D5FE2046FFF744FE012005B026
:102FF000BDE8F0832846FFF705FE4FF0FF30F6E707
:1030000010B588B0002407AA06A905A8059406945F
:1030100000F09CF9059B0293069B019300942346C4
:10302000079A0D490D48FFF787FF90B14FF0500305
:1030300083F31188BFF36F8FBFF34F8F084B4FF0AF
:10304000FF321A60074B01221A60074B1C60FFF722
:10305000A1FC08B010BD00BF713D0008492E00085A
:1030600088400020A4400020D0400020024A13687D
:1030700001331360704700BF544000202DE9F84F22
:103080003C4B1B68002B53D13B4B1C6801341C602C
:10309000BCB93A4B1A68126842B14FF0500383F33F
:1030A0001188BFF36F8FBFF34F8FFEE7344A196863
:1030B000106818601160334A136801331360FFF71A
:1030C00055FE314D314F2B689C424FF0000B3ED3E3
:1030D000DFF8A880DFF8C490D8F80020126872BB2F
:1030E0004FF0FF322A6032E006F1040A5046FFF743
:1030F00041FBB16A19B106F11800FFF73BFBF06A1A
:10310000D9F80030012202FA00F11943204BC9F826
:1031100000104FF0140E51460EFB0030FFF707FB76
:103120003868F16AC26A914228BF4FF0010BD3E7B9
:10313000184A1368013313604FF0000B11E0D8F800
:103140000020D268D66871688C42CDD229603A6876
:103150000F4BD16A14224A439A58022A28BF4FF0D3
:10316000010B0D4A1268002A18BF4FF0010B584698
:10317000BDE8F88F54400020D0400020B43F00202C
:10318000B83F00208C40002088400020B03F002045
:10319000BC3F002050400020D44000205C40002074
:1031A0002DE9F843314C236843B94FF0500383F3C2
:1031B0001188BFF36F8FBFF34F8FFEE7FFF752FB0E
:1031C0002368013B236024682CB10024FFF76CFBCB
:1031D0002046BDE8F883264B1B68002BF5D0DFF8AE
:1031E000A890244FDFF8A480D9F80030E3B90CB1DF
:1031F000FFF7BCFD204D2C6844B1204E0127FFF79E
:103200003DFF00B13760013CF9D12C601B4B1B68BE
:10321000002BDAD01A4B4FF080521A60BFF34F8F59
:10322000BFF36F8F0124D1E7D9F80C30DC68261D7D
:1032300004F11800FFF79EFA3046FFF79BFAE26AA6
:103240003968012505FA02F314200B4300FB0280C4
:1032500031463B60FFF76BFA0A4BE26A1B68DB6A98
:103260009A4224BF054B1D60BEE700BF54400020BA
:10327000484000205C40002050400020D440002006
:1032800004ED00E0B03F002090400020BC3F002053
:1032900008B540B90E4B4FF080521A60BFF34F8F04
:1032A000BFF36F8F08BD0B4B196841B14FF050034E
:1032B00083F31188BFF36F8FBFF34F8FFEE7FFF7E4
:1032C000D5FEFFF7F3FDFFF76BFF0028E2D008BD46
:1032D00004ED00E054400020174B1A68174B10B55E
:1032E00012B101221A6010BD1A60154B1B68B3FAA7
:1032F00083F3DBB2C3F11F03142212495A43881827
:103300008C5844B94FF0500383F31188BFF36F8F8B
:10331000BFF34F8FFEE744680832646844600A4494
:10332000944204BF62684260142202FB03135B688C
:10333000DA68054BD6E700BF54400020D440002097
:103340005C400020BC3F0020B03F0020034B0360E6
:10335000034B0B6080231360704700BFD8420020EE
:10336000D8400020014B1880FEE700BF2E4300200C
:1033700010B50A4C002220212046FEF707F94FF431
:103380007A70FFF785FF204601222021FEF7FEF824
:103390004FF47A70FFF77CFFECE700BF00000240BB
:1033A00070B5134E134D348824B2BCB12B68642B16
:1033B000D4BF2968642189B20020FDF751FE642042
:1033C000FFF766FF01210020FDF73EFE6420FFF7B6
:1033D0005FFF4FF44870FFF75BFFE4E721462046AC
:1033E000FDF73EFE6420FFF753FF01212046EBE787
:1033F000304300203843002073B5144C144D154E53
:10340000124804224FF0FF330DEB0201FFF703F8DF
:1034100098B901A800F0A3FB30604FF4FA70FFF7F1
:1034200037FF04220A230DEB02012046FEF796FF28
:103430004FF4FA70FFF72CFFE2E74FF4FA70FFF752
:1034400027FF0A2304222946EFE700BF7444002027
:10345000933D00083843002008B50120FFF751F9DB
:10346000FBE7000008B50020FDF70CFE40B9FDF7B2
:10347000D9FD082804D0034B4BF6D0221A80FEE772
:1034800008BD00BF2E43002070B594B0302200214B
:1034900008A800F08DFB1422002103A800F088FB8F
:1034A0000026214B01961A6C42F080521A641B6C64
:1034B0001E4A03F080530193019B0296136823F484
:1034C000404343F40043136013680F9603F44043F2
:1034D0000293029B01230B9310230C9310934FF440
:1034E000A873119304230225129308A807230895B3
:1034F0000E951393FEF75CF8044610B10C4B1E803A
:10350000FEE70F23039305904FF48053079029465D
:1035100003A804950693FEF7FBF910B1044B1C8039
:10352000FEE714B070BD00BF0038024000700040DC
:103530002E43002080B58EB0FDF724FEFFF7A4FFD8
:1035400001210020FDF75AFB002211464FF0FF3009
:10355000FDF76AFE012141F63E00FDF7C1FD6A4913
:103560006A4D41F63E00FDF743FD0920FDF79CFD45
:103570006748FDF731FD6748FDF722FD42F2107103
:103580000020FDF79FFD42F210710120FDF79AFD2A
:103590001422002107A800F00BFB00245E4B0394CB
:1035A0001A6B5E4842F004021A631A6B02F00402BE
:1035B0000392039A04941A6B42F080021A631A6B06
:1035C00002F080020492049A05941A6B42F0010200
:1035D0001A631A6B02F001020592059A06941A6B9F
:1035E00042F002021A631B6B03F0020322460693A9
:1035F0002021069BFDF7CAFF4FF40053079307A94C
:10360000474B4848089302260994FDF76DFE07A929
:1036100044480895012707960994FDF765FE0323A2
:1036200007A93E480793089609940A940B97FDF75B
:103630005BFE202307A939480793089709940A9449
:10364000FDF752FE4FF4806307A9344807930895AD
:103650000994FDF749FE302307A9334807930896DC
:1036600009940A940B96FDF73FFE22462146072057
:10367000FDF7DAFD0720FDF70BFE22460521282085
:10368000FDF7D2FD2820FDF703FE2848284A846074
:103690004FF4E13380E80C000C23C4600461436103
:1036A0008461C461FEF72CFE054610B1214B1C80DD
:1036B000FEE7214B214918808022034601900096A5
:1036C0001F48FFF770FC00962B4680221D4901958C
:1036D0001D48FFF768FC00961C4E184901952B46C3
:1036E00080221B48FFF75FFC0FCE07AC0FC496E8A3
:1036F000070084E80700294607A8FEF7DAFF154B04
:103700001860FEF7D1FFFEE77001002000001110E5
:1037100065340008653300080038024000000240AC
:103720000000211000080240000402407444002000
:10373000004400402E43002030430020793D000823
:1037400071330008853D0008A1330008483D00089A
:10375000F93300087044002010B5084C08494FF6B2
:10376000FF7304222046FEF7F9FD20464FF6FF7353
:1037700002220449BDE81040FEF7F0BD7444002069
:1037800032430020763D00080268034B9A4201D183
:10379000FDF712BD704700BF0008004008B5084B98
:1037A00001224FF496701A70FDF718FD054B4FF487
:1037B00000525A612820BDE80840FDF775BD00BFE2
:1037C0002C430020003C014007B50F4B0022009223
:1037D000596C41F480415964596C01F48041009165
:1037E00000990192196C41F0805119641B6C03F02F
:1037F000805301930F216FF00100019BFDF714FD31
:1038000003B05DF804FB00BF0038024010B5044669
:1038100088B01422002103A800F0CAF92268174BCF
:103820009A4228D103F5FA33002401941A6C144803
:1038300042F400321A641A6C02F400320192019AC6
:1038400002941A6B42F001021A631B6B03F001032E
:103850000293029B0C2303930223049303A90723DF
:103860000793FDF741FD262022460521FDF7DCFCEC
:103870002620FDF70DFD08B010BD00BF004400403C
:103880000000024000B50368324A93428BB032D147
:10389000037F012B1AD1002302F50D320193116C25
:1038A00041F002011164126C079302F002020192CE
:1038B000019A089310220592022206920992264844
:1038C00005A9FDF711FD0BB05DF804FB022BFAD141
:1038D000002222490292086C40F002000864096C40
:1038E000069301F0020102910299079220210591AD
:1038F00008920993E3E7B3F1804FE4D1037F012BF2
:1039000014D1002215490392086C40F001000864AC
:10391000096C059301F001010391039907920221BB
:1039200006910892099305A90D48CAE7022BCAD14E
:1039300000220A490492086C40F001000864096CF6
:10394000059301F0010104910693049907920892EE
:103950000123E7E700040040000402400038024071
:10396000000002400368104A93420CD1037F012BF0
:1039700018D102F50D320D48136C23F002031364C5
:103980001021FDF787BDB3F1804F0BD1017F0129D5
:1039900006D1074A0748136C23F001031364F0E7CC
:1039A0000229F6D0704700BF000400400004024026
:1039B0000038024000000240B0F5806F10B50446A8
:1039C00001D0022801D1FDF721FBB4F5005F03D13E
:1039D000BDE81040FFF7E2BE10BD000030B5014663
:1039E00089B000221E20FDF71FFC1E20FDF750FCB1
:1039F0000025154B02951A6C144C42F004021A640F
:103A00001B6C03F00403029301A903A8029BFEF7B9
:103A100039F8FEF717F80E4B236040F2E733E36006
:103A200040000C4BB0FBF3F001386060204625618C
:103A3000A560FEF7DBF920B92046FEF7B6F809B01D
:103A400030BD0120FBE700BF00380240B444002035
:103A50000008004040420F007047FEE7FEE7FEE727
:103A6000FEE770470220FDF797BD00000148FEF712
:103A7000CDB800BFB44400200148FEF76DBD00BFC3
:103A80007444002008B50D4BB3F900209AB1002210
:103A90004FF480601A80FDF77FFD4FF40050FDF772
:103AA0007BFD4FF48060FDF777FD4FF40050BDE8DB
:103AB0000840FDF771BD0122EAE700BF3043002056
:103AC0000F49D1F8883043F47003C1F888300D4BAA
:103AD0001A68002042F001021A6098601A6822F009
:103AE000847222F480321A60074A5A601A6822F4FB
:103AF00080221A60D8604FF000638B60704700BF6F
:103B000000ED00E00038024010300024DFF834D02F
:103B1000002103E00C4B5B58435004310B480C4B25
:103B200042189A42F6D30B4A02E0002342F8043BC3
:103B3000094B9A42F9D3FFF7C3FF00F015F8FFF7DE
:103B4000F9FC704700800120D83E000800000020EA
:103B50006C0300206C030020F4440020FEE70A22DE
:103B6000002100F0ADB8000070B50D4E0D4CA41B47
:103B7000A4100025A54209D10B4E0C4C00F0D8F83A
:103B8000A41BA4100025A54205D170BD56F8253010
:103B900098470135EEE756F8253098470135F2E7AA
:103BA000D03E0008D03E0008D03E0008D43E0008B9
:103BB00002440346934200D1704703F8011BF9E722
:103BC0002DE9F84F8046894692461F468B465D4652
:103BD0000A9815F8014B00F089F82044467816F051
:103BE00008060BD12D2C0BD12C7801260BF10205E8
:103BF00067B1102F14D1302C0AD011E0AB46E6E7A4
:103C00002B2C04BF2C780BF10205F1E7302C27D1C7
:103C10002B7803F0DF03582B4BD16C78102702353B
:103C2000002E0CBF6FF000414FF000410022B1FBAD
:103C3000F7FE104607FB1E1CA4F13003092B11D818
:103C40001C46A7421DDD531C07D0864516D301D163
:103C5000A44513DB00FB0740012215F8014BEBE7FD
:103C60000A27DDE7A4F14103192B01D8373CE8E727
:103C7000A4F16103192B04D8573CE2E74FF0FF325F
:103C8000EBE7531C08D12223C8F800300846BAF1EC
:103C9000000F07D1BDE8F88F06B14042BAF1000F1E
:103CA0000CD022B1013DCAF80050BDE8F88F4D4656
:103CB000F9E73024002FB3D10827B1E7BDE8F88F2A
:103CC000084B37B51C68084D236A002B08BF2B46EC
:103CD000009313460A4601462046FFF771FF03B0E2
:103CE00030BD00BF9C01002000020020D0F8EC0095
:103CF000704782B001B901A942B14BB113780B6092
:103D00001278101C18BF012002B070471046FBE764
:103D10006FF00100F8E749B1FF2A85BF8A230360ED
:103D20000A704FF0FF3098BF012070470846704777
:103D3000F8B500BFF8BC08BC9E467047F8B500BF98
:083D4000F8BC08BC9E46704768
:103D4800983D0008593400080000000000000000F9
:103D580080000000000000000000000002030304CF
:103D680002030203020102010149444C45000D0A05
:103D7800006C65645F636F6E74726F6C006D6F7456
:103D88006F725F636F6E74726F6C006661696C004E
:103D980064656661756C745461736B0000000000A3
:103DA80000000000010203040607080900000000E3
:103DB800010203044300504F534958002E000020CD
:103DC80020202020202020202828282828202020C3
:103DD8002020202020202020202020202020208873
:103DE80010101010101010101010101010101004D7
:103DF8000404040404040404041010101010101027
:103E0800414141414141010101010101010101011A
:103E18000101010101010101010110101010101030
:103E280042424242424202020202020202020202EA
:103E38000202020202020202020210101010200006
:103E4800000000000000000000000000000000006A
:103E5800000000000000000000000000000000005A
:103E6800000000000000000000000000000000004A
:103E7800000000000000000000000000000000003A
:103E8800000000000000000000000000000000002A
:103E9800000000000000000000000000000000001A
:103EA800000000000000000000000000000000000A
:103EB80000000000000000000000000000000000FA
:083EC80048C3FF7F0100000068
:043ED000C501000820
:043ED400A101000840
:103ED800C90B00081D050008F1040008FD040008CE
:103EE80000000000DD05000800000000450500088E
:103EF800000000007905000819050008000000000E
:103F0800A5050008000000000000000000000000F7
:103F180000000000000000000D090008000000007B
:103F280000000000E5090008000000000000000093
:103F38000000000000000000850A000800000000E2
:103F4800000000000000000000000000D506000886
:103F58000D07000800000000D1050008000000005F
:103F68000000000000000000000000000000000049
:103F78000000000000000000000000000000000039
:103F880000000000000000006509000800000000B3
:103F98000000000000000000000000000000000019
:103FA8000000000000000000000000000000000009
:103FB80000000000000000000000000000000000F9
:103FC80035050008000000000000000000000000A7
:103FD800000000002106000809050008E50A00089D
:103FE80000000000000000000000000000000000C9
:103FF80000000000000000000000000000000000B9
:1040080000000000000000000000000000000000A8
:104018000000000029050008000000000000000062
:104028000000000000000000000000000000000088
:10403800000000000008024001000000AAAAAAAA85
:1040480000000000204E0000204E0000204E00001E
:10405800204E000064006400640064000101000157
:1040680008080808000000000024F400A00100204F
:104078000000000000000000000000000000000038
:104088000000000000000000000000000000000028
:104098000000000000000000000000000000000018
:1040A8000000000000000000000000000000000008
:1040B80000000000000000000000000000000000F8
:1040C80000000000000000000000000000000000E8
:1040D8004300000000000000000000000000000095
:1040E80000000000000000000000000000000000C8
:1040F8004300000000000000000000000000000075
:1041080000000000000000000000000000000000A7
:104118004300000000000000000000000000000054
:104128000000000000000000000000000000000087
:104138004300000000000000000000000000000034
:104148000000000000000000000000000000000067
:104158004300000000000000000000000000000014
:104168000000000000000000000000000000000047
:1041780043000000000000000000000000000000F4
:104188000000000000000000000000000000000027
:1041980043000000000000000000000000000000D4
:1041A8000000000000000000000000000000000007
:1041B800173D0008F33C000800000000C63D000859
:1041C800C43D0008783D0008783D0008783D0008A7
:1041D800783D0008783D0008783D0008783D0008E3
:1041E800783D0008783D0008FFFFFFFFFFFFFFFF55
:1041F800FFFFFFFFFFFF0000010041534349490053
:1042080000000000000000000000000000000000A6
:10421800000000000000000000004153434949002D
:104228000000000000000000000000000000000086
:0C4238000000000000000000000000007A
:0400000508003B0DA7
:00000001FF
